{
  "address": "0x7641767C9Cb2190025D4FD87363fcA2E4d589bc6",
  "abi": [
    {
      "anonymous": false,
      "inputs": [
        {
          "indexed": true,
          "internalType": "address",
          "name": "owner",
          "type": "address"
        },
        {
          "indexed": true,
          "internalType": "address",
          "name": "approved",
          "type": "address"
        },
        {
          "indexed": true,
          "internalType": "uint256",
          "name": "tokenId",
          "type": "uint256"
        }
      ],
      "name": "Approval",
      "type": "event"
    },
    {
      "anonymous": false,
      "inputs": [
        {
          "indexed": true,
          "internalType": "address",
          "name": "owner",
          "type": "address"
        },
        {
          "indexed": true,
          "internalType": "address",
          "name": "operator",
          "type": "address"
        },
        {
          "indexed": false,
          "internalType": "bool",
          "name": "approved",
          "type": "bool"
        }
      ],
      "name": "ApprovalForAll",
      "type": "event"
    },
    {
      "anonymous": false,
      "inputs": [
        {
          "indexed": false,
          "internalType": "string",
          "name": "oldURI",
          "type": "string"
        },
        {
          "indexed": false,
          "internalType": "string",
          "name": "newURI",
          "type": "string"
        }
      ],
      "name": "BaseURIChanged",
      "type": "event"
    },
    {
      "anonymous": false,
      "inputs": [
        {
          "indexed": true,
          "internalType": "uint256",
          "name": "tokenId",
          "type": "uint256"
        },
        {
          "indexed": true,
          "internalType": "uint256",
          "name": "certificationId",
          "type": "uint256"
        }
      ],
      "name": "CertificaitonNFTBurned",
      "type": "event"
    },
    {
      "anonymous": false,
      "inputs": [
        {
          "indexed": true,
          "internalType": "address",
          "name": "to",
          "type": "address"
        },
        {
          "indexed": true,
          "internalType": "uint256",
          "name": "tokenId",
          "type": "uint256"
        },
        {
          "indexed": true,
          "internalType": "uint256",
          "name": "certificationId",
          "type": "uint256"
        }
      ],
      "name": "CertificationNFTMinted",
      "type": "event"
    },
    {
      "anonymous": false,
      "inputs": [
        {
          "indexed": false,
          "internalType": "uint8",
          "name": "version",
          "type": "uint8"
        }
      ],
      "name": "Initialized",
      "type": "event"
    },
    {
      "anonymous": false,
      "inputs": [
        {
          "indexed": true,
          "internalType": "address",
          "name": "previousOwner",
          "type": "address"
        },
        {
          "indexed": true,
          "internalType": "address",
          "name": "newOwner",
          "type": "address"
        }
      ],
      "name": "OwnershipTransferred",
      "type": "event"
    },
    {
      "anonymous": false,
      "inputs": [
        {
          "indexed": true,
          "internalType": "address",
          "name": "from",
          "type": "address"
        },
        {
          "indexed": true,
          "internalType": "address",
          "name": "to",
          "type": "address"
        },
        {
          "indexed": true,
          "internalType": "uint256",
          "name": "tokenId",
          "type": "uint256"
        }
      ],
      "name": "Transfer",
      "type": "event"
    },
    {
      "inputs": [
        {
          "internalType": "address",
          "name": "_spender",
          "type": "address"
        },
        {
          "internalType": "uint256",
          "name": "_tokenId",
          "type": "uint256"
        }
      ],
      "name": "approve",
      "outputs": [],
      "stateMutability": "nonpayable",
      "type": "function"
    },
    {
      "inputs": [
        {
          "internalType": "address",
          "name": "",
          "type": "address"
        }
      ],
      "name": "balanceOf",
      "outputs": [
        {
          "internalType": "uint256",
          "name": "",
          "type": "uint256"
        }
      ],
      "stateMutability": "view",
      "type": "function"
    },
    {
      "inputs": [],
      "name": "baseURI",
      "outputs": [
        {
          "internalType": "string",
          "name": "",
          "type": "string"
        }
      ],
      "stateMutability": "view",
      "type": "function"
    },
    {
      "inputs": [
        {
          "internalType": "uint256",
          "name": "_tokenId",
          "type": "uint256"
        }
      ],
      "name": "burn",
      "outputs": [],
      "stateMutability": "nonpayable",
      "type": "function"
    },
    {
      "inputs": [
        {
          "internalType": "uint256",
          "name": "",
          "type": "uint256"
        }
      ],
      "name": "getApproved",
      "outputs": [
        {
          "internalType": "address",
          "name": "",
          "type": "address"
        }
      ],
      "stateMutability": "view",
      "type": "function"
    },
    {
      "inputs": [
        {
          "internalType": "string",
          "name": "_name",
          "type": "string"
        },
        {
          "internalType": "string",
          "name": "_symbol",
          "type": "string"
        }
      ],
      "name": "initialize",
      "outputs": [],
      "stateMutability": "nonpayable",
      "type": "function"
    },
    {
      "inputs": [
        {
          "internalType": "string",
          "name": "_name",
          "type": "string"
        },
        {
          "internalType": "string",
          "name": "_symbol",
          "type": "string"
        }
      ],
      "name": "intialize",
      "outputs": [],
      "stateMutability": "nonpayable",
      "type": "function"
    },
    {
      "inputs": [
        {
          "internalType": "address",
          "name": "",
          "type": "address"
        },
        {
          "internalType": "address",
          "name": "",
          "type": "address"
        }
      ],
      "name": "isApprovedForAll",
      "outputs": [
        {
          "internalType": "bool",
          "name": "",
          "type": "bool"
        }
      ],
      "stateMutability": "view",
      "type": "function"
    },
    {
      "inputs": [
        {
          "internalType": "uint256",
          "name": "",
          "type": "uint256"
        }
      ],
      "name": "links",
      "outputs": [
        {
          "internalType": "bytes32",
          "name": "",
          "type": "bytes32"
        }
      ],
      "stateMutability": "view",
      "type": "function"
    },
    {
      "inputs": [
        {
          "internalType": "address",
          "name": "_to",
          "type": "address"
        },
        {
          "internalType": "uint256",
          "name": "_certificationId",
          "type": "uint256"
        }
      ],
      "name": "mint",
      "outputs": [
        {
          "internalType": "uint256",
          "name": "",
          "type": "uint256"
        }
      ],
      "stateMutability": "nonpayable",
      "type": "function"
    },
    {
      "inputs": [],
      "name": "name",
      "outputs": [
        {
          "internalType": "string",
          "name": "",
          "type": "string"
        }
      ],
      "stateMutability": "view",
      "type": "function"
    },
    {
      "inputs": [],
      "name": "owner",
      "outputs": [
        {
          "internalType": "address",
          "name": "",
          "type": "address"
        }
      ],
      "stateMutability": "view",
      "type": "function"
    },
    {
      "inputs": [
        {
          "internalType": "uint256",
          "name": "",
          "type": "uint256"
        }
      ],
      "name": "ownerOf",
      "outputs": [
        {
          "internalType": "address",
          "name": "",
          "type": "address"
        }
      ],
      "stateMutability": "view",
      "type": "function"
    },
    {
      "inputs": [],
      "name": "renounceOwnership",
      "outputs": [],
      "stateMutability": "nonpayable",
      "type": "function"
    },
    {
      "inputs": [
        {
          "internalType": "address",
          "name": "from",
          "type": "address"
        },
        {
          "internalType": "address",
          "name": "to",
          "type": "address"
        },
        {
          "internalType": "uint256",
          "name": "id",
          "type": "uint256"
        }
      ],
      "name": "safeTransferFrom",
      "outputs": [],
      "stateMutability": "nonpayable",
      "type": "function"
    },
    {
      "inputs": [
        {
          "internalType": "address",
          "name": "from",
          "type": "address"
        },
        {
          "internalType": "address",
          "name": "to",
          "type": "address"
        },
        {
          "internalType": "uint256",
          "name": "id",
          "type": "uint256"
        },
        {
          "internalType": "bytes",
          "name": "data",
          "type": "bytes"
        }
      ],
      "name": "safeTransferFrom",
      "outputs": [],
      "stateMutability": "nonpayable",
      "type": "function"
    },
    {
      "inputs": [
        {
          "internalType": "address",
          "name": "_operator",
          "type": "address"
        },
        {
          "internalType": "bool",
          "name": "_approved",
          "type": "bool"
        }
      ],
      "name": "setApprovalForAll",
      "outputs": [],
      "stateMutability": "nonpayable",
      "type": "function"
    },
    {
      "inputs": [
        {
          "internalType": "string",
          "name": "_uri",
          "type": "string"
        }
      ],
      "name": "setBaseURI",
      "outputs": [],
      "stateMutability": "nonpayable",
      "type": "function"
    },
    {
      "inputs": [
        {
          "internalType": "bytes4",
          "name": "interfaceId",
          "type": "bytes4"
        }
      ],
      "name": "supportsInterface",
      "outputs": [
        {
          "internalType": "bool",
          "name": "",
          "type": "bool"
        }
      ],
      "stateMutability": "view",
      "type": "function"
    },
    {
      "inputs": [],
      "name": "symbol",
      "outputs": [
        {
          "internalType": "string",
          "name": "",
          "type": "string"
        }
      ],
      "stateMutability": "view",
      "type": "function"
    },
    {
      "inputs": [
        {
          "internalType": "uint256",
          "name": "_tokenId",
          "type": "uint256"
        }
      ],
      "name": "tokenURI",
      "outputs": [
        {
          "internalType": "string",
          "name": "",
          "type": "string"
        }
      ],
      "stateMutability": "view",
      "type": "function"
    },
    {
      "inputs": [
        {
          "internalType": "address",
          "name": "from",
          "type": "address"
        },
        {
          "internalType": "address",
          "name": "to",
          "type": "address"
        },
        {
          "internalType": "uint256",
          "name": "id",
          "type": "uint256"
        }
      ],
      "name": "transferFrom",
      "outputs": [],
      "stateMutability": "nonpayable",
      "type": "function"
    },
    {
      "inputs": [
        {
          "internalType": "address",
          "name": "newOwner",
          "type": "address"
        }
      ],
      "name": "transferOwnership",
      "outputs": [],
      "stateMutability": "nonpayable",
      "type": "function"
    },
    {
      "inputs": [
        {
          "internalType": "address",
          "name": "",
          "type": "address"
        },
        {
          "internalType": "uint256",
          "name": "",
          "type": "uint256"
        }
      ],
      "name": "userMinted",
      "outputs": [
        {
          "internalType": "uint256",
          "name": "",
          "type": "uint256"
        }
      ],
      "stateMutability": "view",
      "type": "function"
    }
  ],
  "transactionHash": "0xb0fab9e1ee419c037f08ec5ffb509f1c62c485d9a89836d76bfb110fc89a199c",
  "args": [],
  "numDeployments": 1,
  "solcInputHash": "76515367593e2f9129486a2f6ae93b55",
  "bytecode": "0x608060405234801561001057600080fd5b50613591806100206000396000f3fe608060405234801561001057600080fd5b50600436106101585760003560e01c80636c0360eb116100c3578063a22cb4651161007c578063a22cb465146103d7578063b88d4fde146103f3578063c87b56dd1461040f578063e985e9c51461043f578063f105a5f11461046f578063f2fde38b1461048b57610158565b80636c0360eb1461031357806370a0823114610331578063715018a614610361578063881d8a401461036b5780638da5cb5b1461039b57806395d89b41146103b957610158565b806342842e0e1161011557806342842e0e1461024357806342966c681461025f5780634cd88b761461027b57806353f23a271461029757806355f804b3146102c75780636352211e146102e357610158565b806301ffc9a71461015d57806306fdde031461018d578063081812fc146101ab578063095ea7b3146101db57806323b872dd146101f757806340c10f1914610213575b600080fd5b61017760048036038101906101729190612175565b6104a7565b60405161018491906121bd565b60405180910390f35b610195610539565b6040516101a29190612268565b60405180910390f35b6101c560048036038101906101c091906122c0565b6105c7565b6040516101d2919061232e565b60405180910390f35b6101f560048036038101906101f09190612375565b6105fa565b005b610211600480360381019061020c91906123b5565b6107e3565b005b61022d60048036038101906102289190612375565b610bf4565b60405161023a9190612417565b60405180910390f35b61025d600480360381019061025891906123b5565b610d72565b005b610279600480360381019061027491906122c0565b610eaa565b005b61029560048036038101906102909190612567565b610ff2565b005b6102b160048036038101906102ac9190612375565b61113c565b6040516102be9190612417565b60405180910390f35b6102e160048036038101906102dc91906125df565b611161565b005b6102fd60048036038101906102f891906122c0565b6111b6565b60405161030a919061232e565b60405180910390f35b61031b6111e9565b6040516103289190612268565b60405180910390f35b61034b60048036038101906103469190612628565b611277565b6040516103589190612417565b60405180910390f35b61036961128f565b005b610385600480360381019061038091906122c0565b6112a3565b604051610392919061266e565b60405180910390f35b6103a36112bb565b6040516103b0919061232e565b60405180910390f35b6103c16112e5565b6040516103ce9190612268565b60405180910390f35b6103f160048036038101906103ec91906126b5565b611373565b005b61040d60048036038101906104089190612755565b611470565b005b610429600480360381019061042491906122c0565b6115ae565b6040516104369190612268565b60405180910390f35b610459600480360381019061045491906127dd565b6115c0565b60405161046691906121bd565b60405180910390f35b61048960048036038101906104849190612567565b6115ef565b005b6104a560048036038101906104a09190612628565b611731565b005b60006301ffc9a760e01b827bffffffffffffffffffffffffffffffffffffffffffffffffffffffff1916148061050257506380ac58cd60e01b827bffffffffffffffffffffffffffffffffffffffffffffffffffffffff1916145b806105325750635b5e139f60e01b827bffffffffffffffffffffffffffffffffffffffffffffffffffffffff1916145b9050919050565b606580546105469061284c565b80601f01602080910402602001604051908101604052809291908181526020018280546105729061284c565b80156105bf5780601f10610594576101008083540402835291602001916105bf565b820191906000526020600020905b8154815290600101906020018083116105a257829003601f168201915b505050505081565b60696020528060005260406000206000915054906101000a900473ffffffffffffffffffffffffffffffffffffffff1681565b60006067600083815260200190815260200160002060009054906101000a900473ffffffffffffffffffffffffffffffffffffffff1690508073ffffffffffffffffffffffffffffffffffffffff163373ffffffffffffffffffffffffffffffffffffffff1614806106f25750606a60008273ffffffffffffffffffffffffffffffffffffffff1673ffffffffffffffffffffffffffffffffffffffff16815260200190815260200160002060003373ffffffffffffffffffffffffffffffffffffffff1673ffffffffffffffffffffffffffffffffffffffff16815260200190815260200160002060009054906101000a900460ff165b610731576040517f08c379a0000000000000000000000000000000000000000000000000000000008152600401610728906128c9565b60405180910390fd5b826069600084815260200190815260200160002060006101000a81548173ffffffffffffffffffffffffffffffffffffffff021916908373ffffffffffffffffffffffffffffffffffffffff160217905550818373ffffffffffffffffffffffffffffffffffffffff168273ffffffffffffffffffffffffffffffffffffffff167f8c5be1e5ebec7d5bd14f71427d1e84f3dd0314c0f7b2291e5b200ac8c7c3b92560405160405180910390a4505050565b6107ee8383836117b4565b6067600082815260200190815260200160002060009054906101000a900473ffffffffffffffffffffffffffffffffffffffff1673ffffffffffffffffffffffffffffffffffffffff168373ffffffffffffffffffffffffffffffffffffffff161461088f576040517f08c379a000000000000000000000000000000000000000000000000000000000815260040161088690612935565b60405180910390fd5b600073ffffffffffffffffffffffffffffffffffffffff168273ffffffffffffffffffffffffffffffffffffffff16036108fe576040517f08c379a00000000000000000000000000000000000000000000000000000000081526004016108f5906129a1565b60405180910390fd5b8273ffffffffffffffffffffffffffffffffffffffff163373ffffffffffffffffffffffffffffffffffffffff1614806109be5750606a60008473ffffffffffffffffffffffffffffffffffffffff1673ffffffffffffffffffffffffffffffffffffffff16815260200190815260200160002060003373ffffffffffffffffffffffffffffffffffffffff1673ffffffffffffffffffffffffffffffffffffffff16815260200190815260200160002060009054906101000a900460ff165b80610a2757506069600082815260200190815260200160002060009054906101000a900473ffffffffffffffffffffffffffffffffffffffff1673ffffffffffffffffffffffffffffffffffffffff163373ffffffffffffffffffffffffffffffffffffffff16145b610a66576040517f08c379a0000000000000000000000000000000000000000000000000000000008152600401610a5d906128c9565b60405180910390fd5b606860008473ffffffffffffffffffffffffffffffffffffffff1673ffffffffffffffffffffffffffffffffffffffff168152602001908152602001600020600081546001900391905081905550606860008373ffffffffffffffffffffffffffffffffffffffff1673ffffffffffffffffffffffffffffffffffffffff1681526020019081526020016000206000815460010191905081905550816067600083815260200190815260200160002060006101000a81548173ffffffffffffffffffffffffffffffffffffffff021916908373ffffffffffffffffffffffffffffffffffffffff1602179055506069600082815260200190815260200160002060006101000a81549073ffffffffffffffffffffffffffffffffffffffff0219169055808273ffffffffffffffffffffffffffffffffffffffff168473ffffffffffffffffffffffffffffffffffffffff167fddf252ad1be2c89b69c2b068fc378daa952ba7f163c4a11628f55a4df523b3ef60405160405180910390a4610bef8383836117b9565b505050565b6000610bfe6117be565b6000606f60008573ffffffffffffffffffffffffffffffffffffffff1673ffffffffffffffffffffffffffffffffffffffff16815260200190815260200160002060008481526020019081526020016000205414610c91576040517f08c379a0000000000000000000000000000000000000000000000000000000008152600401610c8890612a0d565b60405180910390fd5b6000606c6000815480929190610ca690612a5c565b919050559050610cb6848261183c565b82606e60008381526020019081526020016000208190555080606f60008673ffffffffffffffffffffffffffffffffffffffff1673ffffffffffffffffffffffffffffffffffffffff16815260200190815260200160002060008581526020019081526020016000208190555082818573ffffffffffffffffffffffffffffffffffffffff167ff17989e6170eec2417726193ff9da458247dd589eead2a51d6fc5c44909f3fe560405160405180910390a48091505092915050565b610d7d8383836107e3565b60008273ffffffffffffffffffffffffffffffffffffffff163b1480610e66575063150b7a0260e01b7bffffffffffffffffffffffffffffffffffffffffffffffffffffffff19168273ffffffffffffffffffffffffffffffffffffffff1663150b7a023386856040518463ffffffff1660e01b8152600401610e0293929190612adb565b6020604051808303816000875af1158015610e21573d6000803e3d6000fd5b505050506040513d601f19601f82011682018060405250810190610e459190612b3a565b7bffffffffffffffffffffffffffffffffffffffffffffffffffffffff1916145b610ea5576040517f08c379a0000000000000000000000000000000000000000000000000000000008152600401610e9c90612bb3565b60405180910390fd5b505050565b3373ffffffffffffffffffffffffffffffffffffffff166067600083815260200190815260200160002060009054906101000a900473ffffffffffffffffffffffffffffffffffffffff1673ffffffffffffffffffffffffffffffffffffffff1614610f4b576040517f08c379a0000000000000000000000000000000000000000000000000000000008152600401610f4290612c1f565b60405180910390fd5b610f5481611973565b6000606e6000838152602001908152602001600020549050606f60003373ffffffffffffffffffffffffffffffffffffffff1673ffffffffffffffffffffffffffffffffffffffff16815260200190815260200160002060008281526020019081526020016000206000905580827f8c999f5bf470414b20062099d6b047199d536d12556ee179aa166c5e5df9e3dd60405160405180910390a35050565b60008060019054906101000a900460ff161590508080156110235750600160008054906101000a900460ff1660ff16105b80611050575061103230611b34565b15801561104f5750600160008054906101000a900460ff1660ff16145b5b61108f576040517f08c379a000000000000000000000000000000000000000000000000000000000815260040161108690612cb1565b60405180910390fd5b60016000806101000a81548160ff021916908360ff16021790555080156110cc576001600060016101000a81548160ff0219169083151502179055505b6110d4611b57565b6110de8383611bb0565b80156111375760008060016101000a81548160ff0219169083151502179055507f7f26b83ff96e1f2b6a682f133852f6798a09c465da95921460cefb3847402498600160405161112e9190612d23565b60405180910390a15b505050565b606f602052816000526040600020602052806000526040600020600091509150505481565b6111696117be565b7fc41b7cb64e5be01af4afc2641afc861432136270f4206b7773f229b658b9669981606d60405161119b929190612dd7565b60405180910390a180606d90816111b29190612f9b565b5050565b60676020528060005260406000206000915054906101000a900473ffffffffffffffffffffffffffffffffffffffff1681565b606d80546111f69061284c565b80601f01602080910402602001604051908101604052809291908181526020018280546112229061284c565b801561126f5780601f106112445761010080835404028352916020019161126f565b820191906000526020600020905b81548152906001019060200180831161125257829003601f168201915b505050505081565b60686020528060005260406000206000915090505481565b6112976117be565b6112a16000611c23565b565b606b6020528060005260406000206000915090505481565b6000603360009054906101000a900473ffffffffffffffffffffffffffffffffffffffff16905090565b606680546112f29061284c565b80601f016020809104026020016040519081016040528092919081815260200182805461131e9061284c565b801561136b5780601f106113405761010080835404028352916020019161136b565b820191906000526020600020905b81548152906001019060200180831161134e57829003601f168201915b505050505081565b80606a60003373ffffffffffffffffffffffffffffffffffffffff1673ffffffffffffffffffffffffffffffffffffffff16815260200190815260200160002060008473ffffffffffffffffffffffffffffffffffffffff1673ffffffffffffffffffffffffffffffffffffffff16815260200190815260200160002060006101000a81548160ff0219169083151502179055508173ffffffffffffffffffffffffffffffffffffffff163373ffffffffffffffffffffffffffffffffffffffff167f17307eab39ab6107e8899845ad3d59bd9653f200f220920489ca2b5937696c318360405161146491906121bd565b60405180910390a35050565b61147b8585856107e3565b60008473ffffffffffffffffffffffffffffffffffffffff163b1480611568575063150b7a0260e01b7bffffffffffffffffffffffffffffffffffffffffffffffffffffffff19168473ffffffffffffffffffffffffffffffffffffffff1663150b7a0233888787876040518663ffffffff1660e01b815260040161150495949392919061309a565b6020604051808303816000875af1158015611523573d6000803e3d6000fd5b505050506040513d601f19601f820116820180604052508101906115479190612b3a565b7bffffffffffffffffffffffffffffffffffffffffffffffffffffffff1916145b6115a7576040517f08c379a000000000000000000000000000000000000000000000000000000000815260040161159e90612bb3565b60405180910390fd5b5050505050565b60606115b982611ce9565b9050919050565b606a6020528160005260406000206020528060005260406000206000915091509054906101000a900460ff1681565b60008060019054906101000a900460ff161590508080156116205750600160008054906101000a900460ff1660ff16105b8061164d575061162f30611b34565b15801561164c5750600160008054906101000a900460ff1660ff16145b5b61168c576040517f08c379a000000000000000000000000000000000000000000000000000000000815260040161168390612cb1565b60405180910390fd5b60016000806101000a81548160ff021916908360ff16021790555080156116c9576001600060016101000a81548160ff0219169083151502179055505b6116d38383611bb0565b801561172c5760008060016101000a81548160ff0219169083151502179055507f7f26b83ff96e1f2b6a682f133852f6798a09c465da95921460cefb384740249860016040516117239190612d23565b60405180910390a15b505050565b6117396117be565b600073ffffffffffffffffffffffffffffffffffffffff168173ffffffffffffffffffffffffffffffffffffffff16036117a8576040517f08c379a000000000000000000000000000000000000000000000000000000000815260040161179f9061315a565b60405180910390fd5b6117b181611c23565b50565b505050565b505050565b6117c6611d30565b73ffffffffffffffffffffffffffffffffffffffff166117e46112bb565b73ffffffffffffffffffffffffffffffffffffffff161461183a576040517f08c379a0000000000000000000000000000000000000000000000000000000008152600401611831906131c6565b60405180910390fd5b565b6118468282611d38565b60008273ffffffffffffffffffffffffffffffffffffffff163b1480611930575063150b7a0260e01b7bffffffffffffffffffffffffffffffffffffffffffffffffffffffff19168273ffffffffffffffffffffffffffffffffffffffff1663150b7a02336000856040518463ffffffff1660e01b81526004016118cc93929190612adb565b6020604051808303816000875af11580156118eb573d6000803e3d6000fd5b505050506040513d601f19601f8201168201806040525081019061190f9190612b3a565b7bffffffffffffffffffffffffffffffffffffffffffffffffffffffff1916145b61196f576040517f08c379a000000000000000000000000000000000000000000000000000000000815260040161196690612bb3565b60405180910390fd5b5050565b60006067600083815260200190815260200160002060009054906101000a900473ffffffffffffffffffffffffffffffffffffffff169050600073ffffffffffffffffffffffffffffffffffffffff168173ffffffffffffffffffffffffffffffffffffffff1603611a1a576040517f08c379a0000000000000000000000000000000000000000000000000000000008152600401611a1190613232565b60405180910390fd5b606860008273ffffffffffffffffffffffffffffffffffffffff1673ffffffffffffffffffffffffffffffffffffffff1681526020019081526020016000206000815460019003919050819055506067600083815260200190815260200160002060006101000a81549073ffffffffffffffffffffffffffffffffffffffff02191690556069600083815260200190815260200160002060006101000a81549073ffffffffffffffffffffffffffffffffffffffff021916905581600073ffffffffffffffffffffffffffffffffffffffff168273ffffffffffffffffffffffffffffffffffffffff167fddf252ad1be2c89b69c2b068fc378daa952ba7f163c4a11628f55a4df523b3ef60405160405180910390a45050565b6000808273ffffffffffffffffffffffffffffffffffffffff163b119050919050565b600060019054906101000a900460ff16611ba6576040517f08c379a0000000000000000000000000000000000000000000000000000000008152600401611b9d906132c4565b60405180910390fd5b611bae611f48565b565b600060019054906101000a900460ff16611bff576040517f08c379a0000000000000000000000000000000000000000000000000000000008152600401611bf6906132c4565b60405180910390fd5b8160659081611c0e9190612f9b565b508060669081611c1e9190612f9b565b505050565b6000603360009054906101000a900473ffffffffffffffffffffffffffffffffffffffff16905081603360006101000a81548173ffffffffffffffffffffffffffffffffffffffff021916908373ffffffffffffffffffffffffffffffffffffffff1602179055508173ffffffffffffffffffffffffffffffffffffffff168173ffffffffffffffffffffffffffffffffffffffff167f8be0079c531659141344cd1fd0a4f28419497f9722a3daafe3b4186f6b6457e060405160405180910390a35050565b6060606d611d09606e600085815260200190815260200160002054611fa9565b604051602001611d1a9291906133a3565b6040516020818303038152906040529050919050565b600033905090565b600073ffffffffffffffffffffffffffffffffffffffff168273ffffffffffffffffffffffffffffffffffffffff1603611da7576040517f08c379a0000000000000000000000000000000000000000000000000000000008152600401611d9e906129a1565b60405180910390fd5b600073ffffffffffffffffffffffffffffffffffffffff166067600083815260200190815260200160002060009054906101000a900473ffffffffffffffffffffffffffffffffffffffff1673ffffffffffffffffffffffffffffffffffffffff1614611e49576040517f08c379a0000000000000000000000000000000000000000000000000000000008152600401611e4090613413565b60405180910390fd5b606860008373ffffffffffffffffffffffffffffffffffffffff1673ffffffffffffffffffffffffffffffffffffffff1681526020019081526020016000206000815460010191905081905550816067600083815260200190815260200160002060006101000a81548173ffffffffffffffffffffffffffffffffffffffff021916908373ffffffffffffffffffffffffffffffffffffffff160217905550808273ffffffffffffffffffffffffffffffffffffffff16600073ffffffffffffffffffffffffffffffffffffffff167fddf252ad1be2c89b69c2b068fc378daa952ba7f163c4a11628f55a4df523b3ef60405160405180910390a45050565b600060019054906101000a900460ff16611f97576040517f08c379a0000000000000000000000000000000000000000000000000000000008152600401611f8e906132c4565b60405180910390fd5b611fa7611fa2611d30565b611c23565b565b606060008203611ff0576040518060400160405280600181526020017f30000000000000000000000000000000000000000000000000000000000000008152509050612104565b600082905060005b6000821461202257808061200b90612a5c565b915050600a8261201b9190613462565b9150611ff8565b60008167ffffffffffffffff81111561203e5761203d61243c565b5b6040519080825280601f01601f1916602001820160405280156120705781602001600182028036833780820191505090505b5090505b600085146120fd576001826120899190613493565b9150600a8561209891906134c7565b60306120a491906134f8565b60f81b8183815181106120ba576120b961352c565b5b60200101907effffffffffffffffffffffffffffffffffffffffffffffffffffffffffffff1916908160001a905350600a856120f69190613462565b9450612074565b8093505050505b919050565b6000604051905090565b600080fd5b600080fd5b60007fffffffff0000000000000000000000000000000000000000000000000000000082169050919050565b6121528161211d565b811461215d57600080fd5b50565b60008135905061216f81612149565b92915050565b60006020828403121561218b5761218a612113565b5b600061219984828501612160565b91505092915050565b60008115159050919050565b6121b7816121a2565b82525050565b60006020820190506121d260008301846121ae565b92915050565b600081519050919050565b600082825260208201905092915050565b60005b838110156122125780820151818401526020810190506121f7565b60008484015250505050565b6000601f19601f8301169050919050565b600061223a826121d8565b61224481856121e3565b93506122548185602086016121f4565b61225d8161221e565b840191505092915050565b60006020820190508181036000830152612282818461222f565b905092915050565b6000819050919050565b61229d8161228a565b81146122a857600080fd5b50565b6000813590506122ba81612294565b92915050565b6000602082840312156122d6576122d5612113565b5b60006122e4848285016122ab565b91505092915050565b600073ffffffffffffffffffffffffffffffffffffffff82169050919050565b6000612318826122ed565b9050919050565b6123288161230d565b82525050565b6000602082019050612343600083018461231f565b92915050565b6123528161230d565b811461235d57600080fd5b50565b60008135905061236f81612349565b92915050565b6000806040838503121561238c5761238b612113565b5b600061239a85828601612360565b92505060206123ab858286016122ab565b9150509250929050565b6000806000606084860312156123ce576123cd612113565b5b60006123dc86828701612360565b93505060206123ed86828701612360565b92505060406123fe868287016122ab565b9150509250925092565b6124118161228a565b82525050565b600060208201905061242c6000830184612408565b92915050565b600080fd5b600080fd5b7f4e487b7100000000000000000000000000000000000000000000000000000000600052604160045260246000fd5b6124748261221e565b810181811067ffffffffffffffff821117156124935761249261243c565b5b80604052505050565b60006124a6612109565b90506124b2828261246b565b919050565b600067ffffffffffffffff8211156124d2576124d161243c565b5b6124db8261221e565b9050602081019050919050565b82818337600083830152505050565b600061250a612505846124b7565b61249c565b90508281526020810184848401111561252657612525612437565b5b6125318482856124e8565b509392505050565b600082601f83011261254e5761254d612432565b5b813561255e8482602086016124f7565b91505092915050565b6000806040838503121561257e5761257d612113565b5b600083013567ffffffffffffffff81111561259c5761259b612118565b5b6125a885828601612539565b925050602083013567ffffffffffffffff8111156125c9576125c8612118565b5b6125d585828601612539565b9150509250929050565b6000602082840312156125f5576125f4612113565b5b600082013567ffffffffffffffff81111561261357612612612118565b5b61261f84828501612539565b91505092915050565b60006020828403121561263e5761263d612113565b5b600061264c84828501612360565b91505092915050565b6000819050919050565b61266881612655565b82525050565b6000602082019050612683600083018461265f565b92915050565b612692816121a2565b811461269d57600080fd5b50565b6000813590506126af81612689565b92915050565b600080604083850312156126cc576126cb612113565b5b60006126da85828601612360565b92505060206126eb858286016126a0565b9150509250929050565b600080fd5b600080fd5b60008083601f84011261271557612714612432565b5b8235905067ffffffffffffffff811115612732576127316126f5565b5b60208301915083600182028301111561274e5761274d6126fa565b5b9250929050565b60008060008060006080868803121561277157612770612113565b5b600061277f88828901612360565b955050602061279088828901612360565b94505060406127a1888289016122ab565b935050606086013567ffffffffffffffff8111156127c2576127c1612118565b5b6127ce888289016126ff565b92509250509295509295909350565b600080604083850312156127f4576127f3612113565b5b600061280285828601612360565b925050602061281385828601612360565b9150509250929050565b7f4e487b7100000000000000000000000000000000000000000000000000000000600052602260045260246000fd5b6000600282049050600182168061286457607f821691505b6020821081036128775761287661281d565b5b50919050565b7f4e4f545f415554484f52495a4544000000000000000000000000000000000000600082015250565b60006128b3600e836121e3565b91506128be8261287d565b602082019050919050565b600060208201905081810360008301526128e2816128a6565b9050919050565b7f57524f4e475f46524f4d00000000000000000000000000000000000000000000600082015250565b600061291f600a836121e3565b915061292a826128e9565b602082019050919050565b6000602082019050818103600083015261294e81612912565b9050919050565b7f494e56414c49445f524543495049454e54000000000000000000000000000000600082015250565b600061298b6011836121e3565b915061299682612955565b602082019050919050565b600060208201905081810360008301526129ba8161297e565b9050919050565b7f43657274696669636174696f6e4e46543a20616c7265616479206d696e746564600082015250565b60006129f76020836121e3565b9150612a02826129c1565b602082019050919050565b60006020820190508181036000830152612a26816129ea565b9050919050565b7f4e487b7100000000000000000000000000000000000000000000000000000000600052601160045260246000fd5b6000612a678261228a565b91507fffffffffffffffffffffffffffffffffffffffffffffffffffffffffffffffff8203612a9957612a98612a2d565b5b600182019050919050565b600082825260208201905092915050565b50565b6000612ac5600083612aa4565b9150612ad082612ab5565b600082019050919050565b6000608082019050612af0600083018661231f565b612afd602083018561231f565b612b0a6040830184612408565b8181036060830152612b1b81612ab8565b9050949350505050565b600081519050612b3481612149565b92915050565b600060208284031215612b5057612b4f612113565b5b6000612b5e84828501612b25565b91505092915050565b7f554e534146455f524543495049454e5400000000000000000000000000000000600082015250565b6000612b9d6010836121e3565b9150612ba882612b67565b602082019050919050565b60006020820190508181036000830152612bcc81612b90565b9050919050565b7f4f6e6c792074686520746f6b656e206f776e65722063616e206275726e000000600082015250565b6000612c09601d836121e3565b9150612c1482612bd3565b602082019050919050565b60006020820190508181036000830152612c3881612bfc565b9050919050565b7f496e697469616c697a61626c653a20636f6e747261637420697320616c72656160008201527f647920696e697469616c697a6564000000000000000000000000000000000000602082015250565b6000612c9b602e836121e3565b9150612ca682612c3f565b604082019050919050565b60006020820190508181036000830152612cca81612c8e565b9050919050565b6000819050919050565b600060ff82169050919050565b6000819050919050565b6000612d0d612d08612d0384612cd1565b612ce8565b612cdb565b9050919050565b612d1d81612cf2565b82525050565b6000602082019050612d386000830184612d14565b92915050565b60008190508160005260206000209050919050565b60008154612d608161284c565b612d6a81866121e3565b94506001821660008114612d855760018114612d9b57612dce565b60ff198316865281151560200286019350612dce565b612da485612d3e565b60005b83811015612dc657815481890152600182019150602081019050612da7565b808801955050505b50505092915050565b60006040820190508181036000830152612df1818561222f565b90508181036020830152612e058184612d53565b90509392505050565b60006020601f8301049050919050565b600082821b905092915050565b600060088302612e5b7fffffffffffffffffffffffffffffffffffffffffffffffffffffffffffffffff82612e1e565b612e658683612e1e565b95508019841693508086168417925050509392505050565b6000612e98612e93612e8e8461228a565b612ce8565b61228a565b9050919050565b6000819050919050565b612eb283612e7d565b612ec6612ebe82612e9f565b848454612e2b565b825550505050565b600090565b612edb612ece565b612ee6818484612ea9565b505050565b5b81811015612f0a57612eff600082612ed3565b600181019050612eec565b5050565b601f821115612f4f57612f2081612d3e565b612f2984612e0e565b81016020851015612f38578190505b612f4c612f4485612e0e565b830182612eeb565b50505b505050565b600082821c905092915050565b6000612f7260001984600802612f54565b1980831691505092915050565b6000612f8b8383612f61565b9150826002028217905092915050565b612fa4826121d8565b67ffffffffffffffff811115612fbd57612fbc61243c565b5b612fc7825461284c565b612fd2828285612f0e565b600060209050601f8311600181146130055760008415612ff3578287015190505b612ffd8582612f7f565b865550613065565b601f19841661301386612d3e565b60005b8281101561303b57848901518255600182019150602085019450602081019050613016565b868310156130585784890151613054601f891682612f61565b8355505b6001600288020188555050505b505050505050565b60006130798385612aa4565b93506130868385846124e8565b61308f8361221e565b840190509392505050565b60006080820190506130af600083018861231f565b6130bc602083018761231f565b6130c96040830186612408565b81810360608301526130dc81848661306d565b90509695505050505050565b7f4f776e61626c653a206e6577206f776e657220697320746865207a65726f206160008201527f6464726573730000000000000000000000000000000000000000000000000000602082015250565b60006131446026836121e3565b915061314f826130e8565b604082019050919050565b6000602082019050818103600083015261317381613137565b9050919050565b7f4f776e61626c653a2063616c6c6572206973206e6f7420746865206f776e6572600082015250565b60006131b06020836121e3565b91506131bb8261317a565b602082019050919050565b600060208201905081810360008301526131df816131a3565b9050919050565b7f4e4f545f4d494e54454400000000000000000000000000000000000000000000600082015250565b600061321c600a836121e3565b9150613227826131e6565b602082019050919050565b6000602082019050818103600083015261324b8161320f565b9050919050565b7f496e697469616c697a61626c653a20636f6e7472616374206973206e6f74206960008201527f6e697469616c697a696e67000000000000000000000000000000000000000000602082015250565b60006132ae602b836121e3565b91506132b982613252565b604082019050919050565b600060208201905081810360008301526132dd816132a1565b9050919050565b600081905092915050565b600081546132fc8161284c565b61330681866132e4565b94506001821660008114613321576001811461333657613369565b60ff1983168652811515820286019350613369565b61333f85612d3e565b60005b8381101561336157815481890152600182019150602081019050613342565b838801955050505b50505092915050565b600061337d826121d8565b61338781856132e4565b93506133978185602086016121f4565b80840191505092915050565b60006133af82856132ef565b91506133bb8284613372565b91508190509392505050565b7f414c52454144595f4d494e544544000000000000000000000000000000000000600082015250565b60006133fd600e836121e3565b9150613408826133c7565b602082019050919050565b6000602082019050818103600083015261342c816133f0565b9050919050565b7f4e487b7100000000000000000000000000000000000000000000000000000000600052601260045260246000fd5b600061346d8261228a565b91506134788361228a565b92508261348857613487613433565b5b828204905092915050565b600061349e8261228a565b91506134a98361228a565b92508282039050818111156134c1576134c0612a2d565b5b92915050565b60006134d28261228a565b91506134dd8361228a565b9250826134ed576134ec613433565b5b828206905092915050565b60006135038261228a565b915061350e8361228a565b925082820190508082111561352657613525612a2d565b5b92915050565b7f4e487b7100000000000000000000000000000000000000000000000000000000600052603260045260246000fdfea2646970667358221220ad1af01c26f07de0c3cd87d53c14023f0775a40218eeae0e828925392e74867d64736f6c63430008110033",
  "devdoc": {
    "author": "Eric Lee",
    "kind": "dev",
    "methods": {
      "owner()": {
        "details": "Returns the address of the current owner."
      },
      "renounceOwnership()": {
        "details": "Leaves the contract without owner. It will not be possible to call `onlyOwner` functions anymore. Can only be called by the current owner. NOTE: Renouncing ownership will leave the contract without an owner, thereby removing any functionality that is only available to the owner."
      },
      "transferOwnership(address)": {
        "details": "Transfers ownership of the contract to a new account (`newOwner`). Can only be called by the current owner."
      }
    },
    "title": "Certification NFT for Blockchain Academy",
    "version": 1
  },
  "userdoc": {
    "kind": "user",
    "methods": {},
    "notice": "This contract is used to mint NFTs for Blockchain Academy Certification.         Certification is the top level NFT for Blockchain Academy.         It is minted for those who:         - Complete all BuidlCamp courses and exercises         - Finish certain courses combination & pass certain tests         - To be extended...         Certification NFT is a ERC721 token.",
    "version": 1
  },
  "storageLayout": {
    "storage": [
      {
        "astId": 138,
        "contract": "contracts/badge/CertificationNFT.sol:CertificationNFT",
        "label": "_initialized",
        "offset": 0,
        "slot": "0",
        "type": "t_uint8"
      },
      {
        "astId": 141,
        "contract": "contracts/badge/CertificationNFT.sol:CertificationNFT",
        "label": "_initializing",
        "offset": 1,
        "slot": "0",
        "type": "t_bool"
      },
      {
        "astId": 752,
        "contract": "contracts/badge/CertificationNFT.sol:CertificationNFT",
        "label": "__gap",
        "offset": 0,
        "slot": "1",
        "type": "t_array(t_uint256)50_storage"
      },
      {
        "astId": 10,
        "contract": "contracts/badge/CertificationNFT.sol:CertificationNFT",
        "label": "_owner",
        "offset": 0,
        "slot": "51",
        "type": "t_address"
      },
      {
        "astId": 130,
        "contract": "contracts/badge/CertificationNFT.sol:CertificationNFT",
        "label": "__gap",
        "offset": 0,
        "slot": "52",
        "type": "t_array(t_uint256)49_storage"
      },
      {
        "astId": 1780,
        "contract": "contracts/badge/CertificationNFT.sol:CertificationNFT",
        "label": "name",
        "offset": 0,
        "slot": "101",
        "type": "t_string_storage"
      },
      {
        "astId": 1782,
        "contract": "contracts/badge/CertificationNFT.sol:CertificationNFT",
        "label": "symbol",
        "offset": 0,
        "slot": "102",
        "type": "t_string_storage"
      },
      {
        "astId": 1786,
        "contract": "contracts/badge/CertificationNFT.sol:CertificationNFT",
        "label": "ownerOf",
        "offset": 0,
        "slot": "103",
        "type": "t_mapping(t_uint256,t_address)"
      },
      {
        "astId": 1790,
        "contract": "contracts/badge/CertificationNFT.sol:CertificationNFT",
        "label": "balanceOf",
        "offset": 0,
        "slot": "104",
        "type": "t_mapping(t_address,t_uint256)"
      },
      {
        "astId": 1794,
        "contract": "contracts/badge/CertificationNFT.sol:CertificationNFT",
        "label": "getApproved",
        "offset": 0,
        "slot": "105",
        "type": "t_mapping(t_uint256,t_address)"
      },
      {
        "astId": 1800,
        "contract": "contracts/badge/CertificationNFT.sol:CertificationNFT",
        "label": "isApprovedForAll",
        "offset": 0,
        "slot": "106",
        "type": "t_mapping(t_address,t_mapping(t_address,t_bool))"
      },
      {
        "astId": 2324,
        "contract": "contracts/badge/CertificationNFT.sol:CertificationNFT",
        "label": "links",
        "offset": 0,
        "slot": "107",
        "type": "t_mapping(t_uint256,t_bytes32)"
      },
      {
        "astId": 1015,
        "contract": "contracts/badge/CertificationNFT.sol:CertificationNFT",
        "label": "counter",
        "offset": 0,
        "slot": "108",
        "type": "t_uint256"
      },
      {
        "astId": 1017,
        "contract": "contracts/badge/CertificationNFT.sol:CertificationNFT",
        "label": "baseURI",
        "offset": 0,
        "slot": "109",
        "type": "t_string_storage"
      },
      {
        "astId": 1021,
        "contract": "contracts/badge/CertificationNFT.sol:CertificationNFT",
        "label": "certificationIds",
        "offset": 0,
        "slot": "110",
        "type": "t_mapping(t_uint256,t_uint256)"
      },
      {
        "astId": 1027,
        "contract": "contracts/badge/CertificationNFT.sol:CertificationNFT",
        "label": "userMinted",
        "offset": 0,
        "slot": "111",
        "type": "t_mapping(t_address,t_mapping(t_uint256,t_uint256))"
      }
    ],
    "types": {
      "t_address": {
        "encoding": "inplace",
        "label": "address",
        "numberOfBytes": "20"
      },
      "t_array(t_uint256)49_storage": {
        "base": "t_uint256",
        "encoding": "inplace",
        "label": "uint256[49]",
        "numberOfBytes": "1568"
      },
      "t_array(t_uint256)50_storage": {
        "base": "t_uint256",
        "encoding": "inplace",
        "label": "uint256[50]",
        "numberOfBytes": "1600"
      },
      "t_bool": {
        "encoding": "inplace",
        "label": "bool",
        "numberOfBytes": "1"
      },
      "t_bytes32": {
        "encoding": "inplace",
        "label": "bytes32",
        "numberOfBytes": "32"
      },
      "t_mapping(t_address,t_bool)": {
        "encoding": "mapping",
        "key": "t_address",
        "label": "mapping(address => bool)",
        "numberOfBytes": "32",
        "value": "t_bool"
      },
      "t_mapping(t_address,t_mapping(t_address,t_bool))": {
        "encoding": "mapping",
        "key": "t_address",
        "label": "mapping(address => mapping(address => bool))",
        "numberOfBytes": "32",
        "value": "t_mapping(t_address,t_bool)"
      },
      "t_mapping(t_address,t_mapping(t_uint256,t_uint256))": {
        "encoding": "mapping",
        "key": "t_address",
        "label": "mapping(address => mapping(uint256 => uint256))",
        "numberOfBytes": "32",
        "value": "t_mapping(t_uint256,t_uint256)"
      },
      "t_mapping(t_address,t_uint256)": {
        "encoding": "mapping",
        "key": "t_address",
        "label": "mapping(address => uint256)",
        "numberOfBytes": "32",
        "value": "t_uint256"
      },
      "t_mapping(t_uint256,t_address)": {
        "encoding": "mapping",
        "key": "t_uint256",
        "label": "mapping(uint256 => address)",
        "numberOfBytes": "32",
        "value": "t_address"
      },
      "t_mapping(t_uint256,t_bytes32)": {
        "encoding": "mapping",
        "key": "t_uint256",
        "label": "mapping(uint256 => bytes32)",
        "numberOfBytes": "32",
        "value": "t_bytes32"
      },
      "t_mapping(t_uint256,t_uint256)": {
        "encoding": "mapping",
        "key": "t_uint256",
        "label": "mapping(uint256 => uint256)",
        "numberOfBytes": "32",
        "value": "t_uint256"
      },
      "t_string_storage": {
        "encoding": "bytes",
        "label": "string",
        "numberOfBytes": "32"
      },
      "t_uint256": {
        "encoding": "inplace",
        "label": "uint256",
        "numberOfBytes": "32"
      },
      "t_uint8": {
        "encoding": "inplace",
        "label": "uint8",
        "numberOfBytes": "1"
      }
    }
  }
}