{
  "address": "0x852d0fa8a53c5FE484A396d5b1f476a7f137Af77",
  "abi": [
    {
      "anonymous": false,
      "inputs": [
        {
          "indexed": true,
          "internalType": "address",
          "name": "owner",
          "type": "address"
        },
        {
          "indexed": true,
          "internalType": "address",
          "name": "approved",
          "type": "address"
        },
        {
          "indexed": true,
          "internalType": "uint256",
          "name": "tokenId",
          "type": "uint256"
        }
      ],
      "name": "Approval",
      "type": "event"
    },
    {
      "anonymous": false,
      "inputs": [
        {
          "indexed": true,
          "internalType": "address",
          "name": "owner",
          "type": "address"
        },
        {
          "indexed": true,
          "internalType": "address",
          "name": "operator",
          "type": "address"
        },
        {
          "indexed": false,
          "internalType": "bool",
          "name": "approved",
          "type": "bool"
        }
      ],
      "name": "ApprovalForAll",
      "type": "event"
    },
    {
      "anonymous": false,
      "inputs": [
        {
          "indexed": false,
          "internalType": "uint8",
          "name": "version",
          "type": "uint8"
        }
      ],
      "name": "Initialized",
      "type": "event"
    },
    {
      "anonymous": false,
      "inputs": [
        {
          "indexed": true,
          "internalType": "address",
          "name": "previousOwner",
          "type": "address"
        },
        {
          "indexed": true,
          "internalType": "address",
          "name": "newOwner",
          "type": "address"
        }
      ],
      "name": "OwnershipTransferred",
      "type": "event"
    },
    {
      "anonymous": false,
      "inputs": [
        {
          "indexed": true,
          "internalType": "address",
          "name": "from",
          "type": "address"
        },
        {
          "indexed": true,
          "internalType": "address",
          "name": "to",
          "type": "address"
        },
        {
          "indexed": true,
          "internalType": "uint256",
          "name": "tokenId",
          "type": "uint256"
        }
      ],
      "name": "Transfer",
      "type": "event"
    },
    {
      "inputs": [
        {
          "internalType": "address",
          "name": "_spender",
          "type": "address"
        },
        {
          "internalType": "uint256",
          "name": "_tokenId",
          "type": "uint256"
        }
      ],
      "name": "approve",
      "outputs": [],
      "stateMutability": "nonpayable",
      "type": "function"
    },
    {
      "inputs": [
        {
          "internalType": "address",
          "name": "",
          "type": "address"
        }
      ],
      "name": "balanceOf",
      "outputs": [
        {
          "internalType": "uint256",
          "name": "",
          "type": "uint256"
        }
      ],
      "stateMutability": "view",
      "type": "function"
    },
    {
      "inputs": [],
      "name": "baseURI",
      "outputs": [
        {
          "internalType": "string",
          "name": "",
          "type": "string"
        }
      ],
      "stateMutability": "view",
      "type": "function"
    },
    {
      "inputs": [],
      "name": "burn",
      "outputs": [],
      "stateMutability": "nonpayable",
      "type": "function"
    },
    {
      "inputs": [],
      "name": "counter",
      "outputs": [
        {
          "internalType": "uint256",
          "name": "",
          "type": "uint256"
        }
      ],
      "stateMutability": "view",
      "type": "function"
    },
    {
      "inputs": [
        {
          "internalType": "uint256",
          "name": "",
          "type": "uint256"
        }
      ],
      "name": "getApproved",
      "outputs": [
        {
          "internalType": "address",
          "name": "",
          "type": "address"
        }
      ],
      "stateMutability": "view",
      "type": "function"
    },
    {
      "inputs": [
        {
          "internalType": "string",
          "name": "_name",
          "type": "string"
        },
        {
          "internalType": "string",
          "name": "_symbol",
          "type": "string"
        }
      ],
      "name": "initialize",
      "outputs": [],
      "stateMutability": "nonpayable",
      "type": "function"
    },
    {
      "inputs": [
        {
          "internalType": "string",
          "name": "_name",
          "type": "string"
        },
        {
          "internalType": "string",
          "name": "_symbol",
          "type": "string"
        }
      ],
      "name": "intialize",
      "outputs": [],
      "stateMutability": "nonpayable",
      "type": "function"
    },
    {
      "inputs": [
        {
          "internalType": "address",
          "name": "",
          "type": "address"
        },
        {
          "internalType": "address",
          "name": "",
          "type": "address"
        }
      ],
      "name": "isApprovedForAll",
      "outputs": [
        {
          "internalType": "bool",
          "name": "",
          "type": "bool"
        }
      ],
      "stateMutability": "view",
      "type": "function"
    },
    {
      "inputs": [
        {
          "internalType": "address",
          "name": "_to",
          "type": "address"
        }
      ],
      "name": "mint",
      "outputs": [],
      "stateMutability": "nonpayable",
      "type": "function"
    },
    {
      "inputs": [],
      "name": "name",
      "outputs": [
        {
          "internalType": "string",
          "name": "",
          "type": "string"
        }
      ],
      "stateMutability": "view",
      "type": "function"
    },
    {
      "inputs": [
        {
          "internalType": "address",
          "name": "",
          "type": "address"
        },
        {
          "internalType": "uint256",
          "name": "",
          "type": "uint256"
        },
        {
          "internalType": "address",
          "name": "",
          "type": "address"
        },
        {
          "internalType": "uint256",
          "name": "",
          "type": "uint256"
        }
      ],
      "name": "onERC721Linked",
      "outputs": [
        {
          "internalType": "bytes4",
          "name": "",
          "type": "bytes4"
        }
      ],
      "stateMutability": "pure",
      "type": "function"
    },
    {
      "inputs": [],
      "name": "owner",
      "outputs": [
        {
          "internalType": "address",
          "name": "",
          "type": "address"
        }
      ],
      "stateMutability": "view",
      "type": "function"
    },
    {
      "inputs": [
        {
          "internalType": "uint256",
          "name": "",
          "type": "uint256"
        }
      ],
      "name": "ownerOf",
      "outputs": [
        {
          "internalType": "address",
          "name": "",
          "type": "address"
        }
      ],
      "stateMutability": "view",
      "type": "function"
    },
    {
      "inputs": [],
      "name": "renounceOwnership",
      "outputs": [],
      "stateMutability": "nonpayable",
      "type": "function"
    },
    {
      "inputs": [
        {
          "internalType": "address",
          "name": "from",
          "type": "address"
        },
        {
          "internalType": "address",
          "name": "to",
          "type": "address"
        },
        {
          "internalType": "uint256",
          "name": "id",
          "type": "uint256"
        }
      ],
      "name": "safeTransferFrom",
      "outputs": [],
      "stateMutability": "nonpayable",
      "type": "function"
    },
    {
      "inputs": [
        {
          "internalType": "address",
          "name": "from",
          "type": "address"
        },
        {
          "internalType": "address",
          "name": "to",
          "type": "address"
        },
        {
          "internalType": "uint256",
          "name": "id",
          "type": "uint256"
        },
        {
          "internalType": "bytes",
          "name": "data",
          "type": "bytes"
        }
      ],
      "name": "safeTransferFrom",
      "outputs": [],
      "stateMutability": "nonpayable",
      "type": "function"
    },
    {
      "inputs": [
        {
          "internalType": "address",
          "name": "_operator",
          "type": "address"
        },
        {
          "internalType": "bool",
          "name": "_approved",
          "type": "bool"
        }
      ],
      "name": "setApprovalForAll",
      "outputs": [],
      "stateMutability": "nonpayable",
      "type": "function"
    },
    {
      "inputs": [
        {
          "internalType": "string",
          "name": "_baseURI",
          "type": "string"
        }
      ],
      "name": "setBaseURI",
      "outputs": [],
      "stateMutability": "nonpayable",
      "type": "function"
    },
    {
      "inputs": [
        {
          "internalType": "address",
          "name": "",
          "type": "address"
        }
      ],
      "name": "soulBoundTokenId",
      "outputs": [
        {
          "internalType": "uint256",
          "name": "",
          "type": "uint256"
        }
      ],
      "stateMutability": "view",
      "type": "function"
    },
    {
      "inputs": [
        {
          "internalType": "bytes4",
          "name": "interfaceId",
          "type": "bytes4"
        }
      ],
      "name": "supportsInterface",
      "outputs": [
        {
          "internalType": "bool",
          "name": "",
          "type": "bool"
        }
      ],
      "stateMutability": "view",
      "type": "function"
    },
    {
      "inputs": [],
      "name": "symbol",
      "outputs": [
        {
          "internalType": "string",
          "name": "",
          "type": "string"
        }
      ],
      "stateMutability": "view",
      "type": "function"
    },
    {
      "inputs": [
        {
          "internalType": "uint256",
          "name": "_tokenId",
          "type": "uint256"
        }
      ],
      "name": "tokenURI",
      "outputs": [
        {
          "internalType": "string",
          "name": "",
          "type": "string"
        }
      ],
      "stateMutability": "view",
      "type": "function"
    },
    {
      "inputs": [
        {
          "internalType": "address",
          "name": "from",
          "type": "address"
        },
        {
          "internalType": "address",
          "name": "to",
          "type": "address"
        },
        {
          "internalType": "uint256",
          "name": "id",
          "type": "uint256"
        }
      ],
      "name": "transferFrom",
      "outputs": [],
      "stateMutability": "nonpayable",
      "type": "function"
    },
    {
      "inputs": [
        {
          "internalType": "address",
          "name": "newOwner",
          "type": "address"
        }
      ],
      "name": "transferOwnership",
      "outputs": [],
      "stateMutability": "nonpayable",
      "type": "function"
    }
  ],
  "transactionHash": "0x8ea6e5f2bda8fc68b36e63146d86a4d882d4dbc68712e428a3a8d713aa4cdc1f",
  "args": [],
  "numDeployments": 1,
  "solcInputHash": "76515367593e2f9129486a2f6ae93b55",
  "bytecode": "0x608060405234801561001057600080fd5b50613464806100206000396000f3fe608060405234801561001057600080fd5b50600436106101735760003560e01c80636a627842116100de578063a22cb46511610097578063c87b56dd11610071578063c87b56dd14610422578063e985e9c514610452578063f105a5f114610482578063f2fde38b1461049e57610173565b8063a22cb465146103ba578063ab0d082b146103d6578063b88d4fde1461040657610173565b80636a6278421461030a5780636c0360eb1461032657806370a0823114610344578063715018a6146103745780638da5cb5b1461037e57806395d89b411461039c57610173565b806342842e0e1161013057806342842e0e1461025e57806344df8e701461027a5780634cd88b761461028457806355f804b3146102a057806361bc221a146102bc5780636352211e146102da57610173565b806301ffc9a71461017857806306fdde03146101a8578063081812fc146101c6578063095ea7b3146101f65780630e63304d1461021257806323b872dd14610242575b600080fd5b610192600480360381019061018d9190612080565b6104ba565b60405161019f91906120c8565b60405180910390f35b6101b061054c565b6040516101bd9190612173565b60405180910390f35b6101e060048036038101906101db91906121cb565b6105da565b6040516101ed9190612239565b60405180910390f35b610210600480360381019061020b9190612280565b61060d565b005b61022c600480360381019061022791906122c0565b6107f6565b6040516102399190612336565b60405180910390f35b61025c60048036038101906102579190612351565b61080a565b005b61027860048036038101906102739190612351565b610c1b565b005b610282610d53565b005b61029e600480360381019061029991906124d9565b610d9d565b005b6102ba60048036038101906102b59190612551565b610ee7565b005b6102c4610f02565b6040516102d191906125a9565b60405180910390f35b6102f460048036038101906102ef91906121cb565b610f08565b6040516103019190612239565b60405180910390f35b610324600480360381019061031f91906125c4565b610f3b565b005b61032e610f50565b60405161033b9190612173565b60405180910390f35b61035e600480360381019061035991906125c4565b610fde565b60405161036b91906125a9565b60405180910390f35b61037c610ff6565b005b61038661100a565b6040516103939190612239565b60405180910390f35b6103a4611034565b6040516103b19190612173565b60405180910390f35b6103d460048036038101906103cf919061261d565b6110c2565b005b6103f060048036038101906103eb91906125c4565b6111bf565b6040516103fd91906125a9565b60405180910390f35b610420600480360381019061041b91906126bd565b6111d7565b005b61043c600480360381019061043791906121cb565b611315565b6040516104499190612173565b60405180910390f35b61046c60048036038101906104679190612745565b611327565b60405161047991906120c8565b60405180910390f35b61049c600480360381019061049791906124d9565b611356565b005b6104b860048036038101906104b391906125c4565b611498565b005b60006301ffc9a760e01b827bffffffffffffffffffffffffffffffffffffffffffffffffffffffff1916148061051557506380ac58cd60e01b827bffffffffffffffffffffffffffffffffffffffffffffffffffffffff1916145b806105455750635b5e139f60e01b827bffffffffffffffffffffffffffffffffffffffffffffffffffffffff1916145b9050919050565b60658054610559906127b4565b80601f0160208091040260200160405190810160405280929190818152602001828054610585906127b4565b80156105d25780601f106105a7576101008083540402835291602001916105d2565b820191906000526020600020905b8154815290600101906020018083116105b557829003601f168201915b505050505081565b60696020528060005260406000206000915054906101000a900473ffffffffffffffffffffffffffffffffffffffff1681565b60006067600083815260200190815260200160002060009054906101000a900473ffffffffffffffffffffffffffffffffffffffff1690508073ffffffffffffffffffffffffffffffffffffffff163373ffffffffffffffffffffffffffffffffffffffff1614806107055750606a60008273ffffffffffffffffffffffffffffffffffffffff1673ffffffffffffffffffffffffffffffffffffffff16815260200190815260200160002060003373ffffffffffffffffffffffffffffffffffffffff1673ffffffffffffffffffffffffffffffffffffffff16815260200190815260200160002060009054906101000a900460ff165b610744576040517f08c379a000000000000000000000000000000000000000000000000000000000815260040161073b90612831565b60405180910390fd5b826069600084815260200190815260200160002060006101000a81548173ffffffffffffffffffffffffffffffffffffffff021916908373ffffffffffffffffffffffffffffffffffffffff160217905550818373ffffffffffffffffffffffffffffffffffffffff168273ffffffffffffffffffffffffffffffffffffffff167f8c5be1e5ebec7d5bd14f71427d1e84f3dd0314c0f7b2291e5b200ac8c7c3b92560405160405180910390a4505050565b6000630e63304d60e01b9050949350505050565b61081583838361151b565b6067600082815260200190815260200160002060009054906101000a900473ffffffffffffffffffffffffffffffffffffffff1673ffffffffffffffffffffffffffffffffffffffff168373ffffffffffffffffffffffffffffffffffffffff16146108b6576040517f08c379a00000000000000000000000000000000000000000000000000000000081526004016108ad9061289d565b60405180910390fd5b600073ffffffffffffffffffffffffffffffffffffffff168273ffffffffffffffffffffffffffffffffffffffff1603610925576040517f08c379a000000000000000000000000000000000000000000000000000000000815260040161091c90612909565b60405180910390fd5b8273ffffffffffffffffffffffffffffffffffffffff163373ffffffffffffffffffffffffffffffffffffffff1614806109e55750606a60008473ffffffffffffffffffffffffffffffffffffffff1673ffffffffffffffffffffffffffffffffffffffff16815260200190815260200160002060003373ffffffffffffffffffffffffffffffffffffffff1673ffffffffffffffffffffffffffffffffffffffff16815260200190815260200160002060009054906101000a900460ff165b80610a4e57506069600082815260200190815260200160002060009054906101000a900473ffffffffffffffffffffffffffffffffffffffff1673ffffffffffffffffffffffffffffffffffffffff163373ffffffffffffffffffffffffffffffffffffffff16145b610a8d576040517f08c379a0000000000000000000000000000000000000000000000000000000008152600401610a8490612831565b60405180910390fd5b606860008473ffffffffffffffffffffffffffffffffffffffff1673ffffffffffffffffffffffffffffffffffffffff168152602001908152602001600020600081546001900391905081905550606860008373ffffffffffffffffffffffffffffffffffffffff1673ffffffffffffffffffffffffffffffffffffffff1681526020019081526020016000206000815460010191905081905550816067600083815260200190815260200160002060006101000a81548173ffffffffffffffffffffffffffffffffffffffff021916908373ffffffffffffffffffffffffffffffffffffffff1602179055506069600082815260200190815260200160002060006101000a81549073ffffffffffffffffffffffffffffffffffffffff0219169055808273ffffffffffffffffffffffffffffffffffffffff168473ffffffffffffffffffffffffffffffffffffffff167fddf252ad1be2c89b69c2b068fc378daa952ba7f163c4a11628f55a4df523b3ef60405160405180910390a4610c168383836115c6565b505050565b610c2683838361080a565b60008273ffffffffffffffffffffffffffffffffffffffff163b1480610d0f575063150b7a0260e01b7bffffffffffffffffffffffffffffffffffffffffffffffffffffffff19168273ffffffffffffffffffffffffffffffffffffffff1663150b7a023386856040518463ffffffff1660e01b8152600401610cab93929190612960565b6020604051808303816000875af1158015610cca573d6000803e3d6000fd5b505050506040513d601f19601f82011682018060405250810190610cee91906129bf565b7bffffffffffffffffffffffffffffffffffffffffffffffffffffffff1916145b610d4e576040517f08c379a0000000000000000000000000000000000000000000000000000000008152600401610d4590612a38565b60405180910390fd5b505050565b610d9b606c60003373ffffffffffffffffffffffffffffffffffffffff1673ffffffffffffffffffffffffffffffffffffffff168152602001908152602001600020546115cb565b565b60008060019054906101000a900460ff16159050808015610dce5750600160008054906101000a900460ff1660ff16105b80610dfb5750610ddd3061178c565b158015610dfa5750600160008054906101000a900460ff1660ff16145b5b610e3a576040517f08c379a0000000000000000000000000000000000000000000000000000000008152600401610e3190612aca565b60405180910390fd5b60016000806101000a81548160ff021916908360ff1602179055508015610e77576001600060016101000a81548160ff0219169083151502179055505b610e7f6117af565b610e898383611808565b8015610ee25760008060016101000a81548160ff0219169083151502179055507f7f26b83ff96e1f2b6a682f133852f6798a09c465da95921460cefb38474024986001604051610ed99190612b3c565b60405180910390a15b505050565b610eef611865565b80606d9081610efe9190612cf9565b5050565b606b5481565b60676020528060005260406000206000915054906101000a900473ffffffffffffffffffffffffffffffffffffffff1681565b610f43611865565b610f4c816118e3565b5050565b606d8054610f5d906127b4565b80601f0160208091040260200160405190810160405280929190818152602001828054610f89906127b4565b8015610fd65780601f10610fab57610100808354040283529160200191610fd6565b820191906000526020600020905b815481529060010190602001808311610fb957829003601f168201915b505050505081565b60686020528060005260406000206000915090505481565b610ffe611865565b6110086000611997565b565b6000603360009054906101000a900473ffffffffffffffffffffffffffffffffffffffff16905090565b60668054611041906127b4565b80601f016020809104026020016040519081016040528092919081815260200182805461106d906127b4565b80156110ba5780601f1061108f576101008083540402835291602001916110ba565b820191906000526020600020905b81548152906001019060200180831161109d57829003601f168201915b505050505081565b80606a60003373ffffffffffffffffffffffffffffffffffffffff1673ffffffffffffffffffffffffffffffffffffffff16815260200190815260200160002060008473ffffffffffffffffffffffffffffffffffffffff1673ffffffffffffffffffffffffffffffffffffffff16815260200190815260200160002060006101000a81548160ff0219169083151502179055508173ffffffffffffffffffffffffffffffffffffffff163373ffffffffffffffffffffffffffffffffffffffff167f17307eab39ab6107e8899845ad3d59bd9653f200f220920489ca2b5937696c31836040516111b391906120c8565b60405180910390a35050565b606c6020528060005260406000206000915090505481565b6111e285858561080a565b60008473ffffffffffffffffffffffffffffffffffffffff163b14806112cf575063150b7a0260e01b7bffffffffffffffffffffffffffffffffffffffffffffffffffffffff19168473ffffffffffffffffffffffffffffffffffffffff1663150b7a0233888787876040518663ffffffff1660e01b815260040161126b959493929190612df8565b6020604051808303816000875af115801561128a573d6000803e3d6000fd5b505050506040513d601f19601f820116820180604052508101906112ae91906129bf565b7bffffffffffffffffffffffffffffffffffffffffffffffffffffffff1916145b61130e576040517f08c379a000000000000000000000000000000000000000000000000000000000815260040161130590612a38565b60405180910390fd5b5050505050565b606061132082611a5d565b9050919050565b606a6020528160005260406000206020528060005260406000206000915091509054906101000a900460ff1681565b60008060019054906101000a900460ff161590508080156113875750600160008054906101000a900460ff1660ff16105b806113b457506113963061178c565b1580156113b35750600160008054906101000a900460ff1660ff16145b5b6113f3576040517f08c379a00000000000000000000000000000000000000000000000000000000081526004016113ea90612aca565b60405180910390fd5b60016000806101000a81548160ff021916908360ff1602179055508015611430576001600060016101000a81548160ff0219169083151502179055505b61143a8383611a91565b80156114935760008060016101000a81548160ff0219169083151502179055507f7f26b83ff96e1f2b6a682f133852f6798a09c465da95921460cefb3847402498600160405161148a9190612b3c565b60405180910390a15b505050565b6114a0611865565b600073ffffffffffffffffffffffffffffffffffffffff168173ffffffffffffffffffffffffffffffffffffffff160361150f576040517f08c379a000000000000000000000000000000000000000000000000000000000815260040161150690612eb8565b60405180910390fd5b61151881611997565b50565b600073ffffffffffffffffffffffffffffffffffffffff168373ffffffffffffffffffffffffffffffffffffffff1614806115825750600073ffffffffffffffffffffffffffffffffffffffff168273ffffffffffffffffffffffffffffffffffffffff16145b6115c1576040517f08c379a00000000000000000000000000000000000000000000000000000000081526004016115b890612f24565b60405180910390fd5b505050565b505050565b60006067600083815260200190815260200160002060009054906101000a900473ffffffffffffffffffffffffffffffffffffffff169050600073ffffffffffffffffffffffffffffffffffffffff168173ffffffffffffffffffffffffffffffffffffffff1603611672576040517f08c379a000000000000000000000000000000000000000000000000000000000815260040161166990612f90565b60405180910390fd5b606860008273ffffffffffffffffffffffffffffffffffffffff1673ffffffffffffffffffffffffffffffffffffffff1681526020019081526020016000206000815460019003919050819055506067600083815260200190815260200160002060006101000a81549073ffffffffffffffffffffffffffffffffffffffff02191690556069600083815260200190815260200160002060006101000a81549073ffffffffffffffffffffffffffffffffffffffff021916905581600073ffffffffffffffffffffffffffffffffffffffff168273ffffffffffffffffffffffffffffffffffffffff167fddf252ad1be2c89b69c2b068fc378daa952ba7f163c4a11628f55a4df523b3ef60405160405180910390a45050565b6000808273ffffffffffffffffffffffffffffffffffffffff163b119050919050565b600060019054906101000a900460ff166117fe576040517f08c379a00000000000000000000000000000000000000000000000000000000081526004016117f590613022565b60405180910390fd5b611806611b04565b565b600060019054906101000a900460ff16611857576040517f08c379a000000000000000000000000000000000000000000000000000000000815260040161184e90613022565b60405180910390fd5b6118618282611a91565b5050565b61186d611b65565b73ffffffffffffffffffffffffffffffffffffffff1661188b61100a565b73ffffffffffffffffffffffffffffffffffffffff16146118e1576040517f08c379a00000000000000000000000000000000000000000000000000000000081526004016118d89061308e565b60405180910390fd5b565b6000816000606860008373ffffffffffffffffffffffffffffffffffffffff1673ffffffffffffffffffffffffffffffffffffffff1681526020019081526020016000205414611968576040517f08c379a000000000000000000000000000000000000000000000000000000000815260040161195f90613120565b60405180910390fd5b6000606b600081548092919061197d9061316f565b91905055905061198d8482611b6d565b8092505050919050565b6000603360009054906101000a900473ffffffffffffffffffffffffffffffffffffffff16905081603360006101000a81548173ffffffffffffffffffffffffffffffffffffffff021916908373ffffffffffffffffffffffffffffffffffffffff1602179055508173ffffffffffffffffffffffffffffffffffffffff168173ffffffffffffffffffffffffffffffffffffffff167f8be0079c531659141344cd1fd0a4f28419497f9722a3daafe3b4186f6b6457e060405160405180910390a35050565b6060606d611a6a83611ca4565b604051602001611a7b929190613276565b6040516020818303038152906040529050919050565b600060019054906101000a900460ff16611ae0576040517f08c379a0000000000000000000000000000000000000000000000000000000008152600401611ad790613022565b60405180910390fd5b8160659081611aef9190612cf9565b508060669081611aff9190612cf9565b505050565b600060019054906101000a900460ff16611b53576040517f08c379a0000000000000000000000000000000000000000000000000000000008152600401611b4a90613022565b60405180910390fd5b611b63611b5e611b65565b611997565b565b600033905090565b611b778282611e04565b60008273ffffffffffffffffffffffffffffffffffffffff163b1480611c61575063150b7a0260e01b7bffffffffffffffffffffffffffffffffffffffffffffffffffffffff19168273ffffffffffffffffffffffffffffffffffffffff1663150b7a02336000856040518463ffffffff1660e01b8152600401611bfd93929190612960565b6020604051808303816000875af1158015611c1c573d6000803e3d6000fd5b505050506040513d601f19601f82011682018060405250810190611c4091906129bf565b7bffffffffffffffffffffffffffffffffffffffffffffffffffffffff1916145b611ca0576040517f08c379a0000000000000000000000000000000000000000000000000000000008152600401611c9790612a38565b60405180910390fd5b5050565b606060008203611ceb576040518060400160405280600181526020017f30000000000000000000000000000000000000000000000000000000000000008152509050611dff565b600082905060005b60008214611d1d578080611d069061316f565b915050600a82611d1691906132c9565b9150611cf3565b60008167ffffffffffffffff811115611d3957611d386123ae565b5b6040519080825280601f01601f191660200182016040528015611d6b5781602001600182028036833780820191505090505b5090505b60008514611df857600182611d8491906132fa565b9150600a85611d93919061332e565b6030611d9f919061335f565b60f81b818381518110611db557611db4613393565b5b60200101907effffffffffffffffffffffffffffffffffffffffffffffffffffffffffffff1916908160001a905350600a85611df191906132c9565b9450611d6f565b8093505050505b919050565b600073ffffffffffffffffffffffffffffffffffffffff168273ffffffffffffffffffffffffffffffffffffffff1603611e73576040517f08c379a0000000000000000000000000000000000000000000000000000000008152600401611e6a90612909565b60405180910390fd5b600073ffffffffffffffffffffffffffffffffffffffff166067600083815260200190815260200160002060009054906101000a900473ffffffffffffffffffffffffffffffffffffffff1673ffffffffffffffffffffffffffffffffffffffff1614611f15576040517f08c379a0000000000000000000000000000000000000000000000000000000008152600401611f0c9061340e565b60405180910390fd5b606860008373ffffffffffffffffffffffffffffffffffffffff1673ffffffffffffffffffffffffffffffffffffffff1681526020019081526020016000206000815460010191905081905550816067600083815260200190815260200160002060006101000a81548173ffffffffffffffffffffffffffffffffffffffff021916908373ffffffffffffffffffffffffffffffffffffffff160217905550808273ffffffffffffffffffffffffffffffffffffffff16600073ffffffffffffffffffffffffffffffffffffffff167fddf252ad1be2c89b69c2b068fc378daa952ba7f163c4a11628f55a4df523b3ef60405160405180910390a45050565b6000604051905090565b600080fd5b600080fd5b60007fffffffff0000000000000000000000000000000000000000000000000000000082169050919050565b61205d81612028565b811461206857600080fd5b50565b60008135905061207a81612054565b92915050565b6000602082840312156120965761209561201e565b5b60006120a48482850161206b565b91505092915050565b60008115159050919050565b6120c2816120ad565b82525050565b60006020820190506120dd60008301846120b9565b92915050565b600081519050919050565b600082825260208201905092915050565b60005b8381101561211d578082015181840152602081019050612102565b60008484015250505050565b6000601f19601f8301169050919050565b6000612145826120e3565b61214f81856120ee565b935061215f8185602086016120ff565b61216881612129565b840191505092915050565b6000602082019050818103600083015261218d818461213a565b905092915050565b6000819050919050565b6121a881612195565b81146121b357600080fd5b50565b6000813590506121c58161219f565b92915050565b6000602082840312156121e1576121e061201e565b5b60006121ef848285016121b6565b91505092915050565b600073ffffffffffffffffffffffffffffffffffffffff82169050919050565b6000612223826121f8565b9050919050565b61223381612218565b82525050565b600060208201905061224e600083018461222a565b92915050565b61225d81612218565b811461226857600080fd5b50565b60008135905061227a81612254565b92915050565b600080604083850312156122975761229661201e565b5b60006122a58582860161226b565b92505060206122b6858286016121b6565b9150509250929050565b600080600080608085870312156122da576122d961201e565b5b60006122e88782880161226b565b94505060206122f9878288016121b6565b935050604061230a8782880161226b565b925050606061231b878288016121b6565b91505092959194509250565b61233081612028565b82525050565b600060208201905061234b6000830184612327565b92915050565b60008060006060848603121561236a5761236961201e565b5b60006123788682870161226b565b93505060206123898682870161226b565b925050604061239a868287016121b6565b9150509250925092565b600080fd5b600080fd5b7f4e487b7100000000000000000000000000000000000000000000000000000000600052604160045260246000fd5b6123e682612129565b810181811067ffffffffffffffff82111715612405576124046123ae565b5b80604052505050565b6000612418612014565b905061242482826123dd565b919050565b600067ffffffffffffffff821115612444576124436123ae565b5b61244d82612129565b9050602081019050919050565b82818337600083830152505050565b600061247c61247784612429565b61240e565b905082815260208101848484011115612498576124976123a9565b5b6124a384828561245a565b509392505050565b600082601f8301126124c0576124bf6123a4565b5b81356124d0848260208601612469565b91505092915050565b600080604083850312156124f0576124ef61201e565b5b600083013567ffffffffffffffff81111561250e5761250d612023565b5b61251a858286016124ab565b925050602083013567ffffffffffffffff81111561253b5761253a612023565b5b612547858286016124ab565b9150509250929050565b6000602082840312156125675761256661201e565b5b600082013567ffffffffffffffff81111561258557612584612023565b5b612591848285016124ab565b91505092915050565b6125a381612195565b82525050565b60006020820190506125be600083018461259a565b92915050565b6000602082840312156125da576125d961201e565b5b60006125e88482850161226b565b91505092915050565b6125fa816120ad565b811461260557600080fd5b50565b600081359050612617816125f1565b92915050565b600080604083850312156126345761263361201e565b5b60006126428582860161226b565b925050602061265385828601612608565b9150509250929050565b600080fd5b600080fd5b60008083601f84011261267d5761267c6123a4565b5b8235905067ffffffffffffffff81111561269a5761269961265d565b5b6020830191508360018202830111156126b6576126b5612662565b5b9250929050565b6000806000806000608086880312156126d9576126d861201e565b5b60006126e78882890161226b565b95505060206126f88882890161226b565b9450506040612709888289016121b6565b935050606086013567ffffffffffffffff81111561272a57612729612023565b5b61273688828901612667565b92509250509295509295909350565b6000806040838503121561275c5761275b61201e565b5b600061276a8582860161226b565b925050602061277b8582860161226b565b9150509250929050565b7f4e487b7100000000000000000000000000000000000000000000000000000000600052602260045260246000fd5b600060028204905060018216806127cc57607f821691505b6020821081036127df576127de612785565b5b50919050565b7f4e4f545f415554484f52495a4544000000000000000000000000000000000000600082015250565b600061281b600e836120ee565b9150612826826127e5565b602082019050919050565b6000602082019050818103600083015261284a8161280e565b9050919050565b7f57524f4e475f46524f4d00000000000000000000000000000000000000000000600082015250565b6000612887600a836120ee565b915061289282612851565b602082019050919050565b600060208201905081810360008301526128b68161287a565b9050919050565b7f494e56414c49445f524543495049454e54000000000000000000000000000000600082015250565b60006128f36011836120ee565b91506128fe826128bd565b602082019050919050565b60006020820190508181036000830152612922816128e6565b9050919050565b600082825260208201905092915050565b50565b600061294a600083612929565b91506129558261293a565b600082019050919050565b6000608082019050612975600083018661222a565b612982602083018561222a565b61298f604083018461259a565b81810360608301526129a08161293d565b9050949350505050565b6000815190506129b981612054565b92915050565b6000602082840312156129d5576129d461201e565b5b60006129e3848285016129aa565b91505092915050565b7f554e534146455f524543495049454e5400000000000000000000000000000000600082015250565b6000612a226010836120ee565b9150612a2d826129ec565b602082019050919050565b60006020820190508181036000830152612a5181612a15565b9050919050565b7f496e697469616c697a61626c653a20636f6e747261637420697320616c72656160008201527f647920696e697469616c697a6564000000000000000000000000000000000000602082015250565b6000612ab4602e836120ee565b9150612abf82612a58565b604082019050919050565b60006020820190508181036000830152612ae381612aa7565b9050919050565b6000819050919050565b600060ff82169050919050565b6000819050919050565b6000612b26612b21612b1c84612aea565b612b01565b612af4565b9050919050565b612b3681612b0b565b82525050565b6000602082019050612b516000830184612b2d565b92915050565b60008190508160005260206000209050919050565b60006020601f8301049050919050565b600082821b905092915050565b600060088302612bb97fffffffffffffffffffffffffffffffffffffffffffffffffffffffffffffffff82612b7c565b612bc38683612b7c565b95508019841693508086168417925050509392505050565b6000612bf6612bf1612bec84612195565b612b01565b612195565b9050919050565b6000819050919050565b612c1083612bdb565b612c24612c1c82612bfd565b848454612b89565b825550505050565b600090565b612c39612c2c565b612c44818484612c07565b505050565b5b81811015612c6857612c5d600082612c31565b600181019050612c4a565b5050565b601f821115612cad57612c7e81612b57565b612c8784612b6c565b81016020851015612c96578190505b612caa612ca285612b6c565b830182612c49565b50505b505050565b600082821c905092915050565b6000612cd060001984600802612cb2565b1980831691505092915050565b6000612ce98383612cbf565b9150826002028217905092915050565b612d02826120e3565b67ffffffffffffffff811115612d1b57612d1a6123ae565b5b612d2582546127b4565b612d30828285612c6c565b600060209050601f831160018114612d635760008415612d51578287015190505b612d5b8582612cdd565b865550612dc3565b601f198416612d7186612b57565b60005b82811015612d9957848901518255600182019150602085019450602081019050612d74565b86831015612db65784890151612db2601f891682612cbf565b8355505b6001600288020188555050505b505050505050565b6000612dd78385612929565b9350612de483858461245a565b612ded83612129565b840190509392505050565b6000608082019050612e0d600083018861222a565b612e1a602083018761222a565b612e27604083018661259a565b8181036060830152612e3a818486612dcb565b90509695505050505050565b7f4f776e61626c653a206e6577206f776e657220697320746865207a65726f206160008201527f6464726573730000000000000000000000000000000000000000000000000000602082015250565b6000612ea26026836120ee565b9150612ead82612e46565b604082019050919050565b60006020820190508181036000830152612ed181612e95565b9050919050565b7f5342543a204e6f207472616e7366657273000000000000000000000000000000600082015250565b6000612f0e6011836120ee565b9150612f1982612ed8565b602082019050919050565b60006020820190508181036000830152612f3d81612f01565b9050919050565b7f4e4f545f4d494e54454400000000000000000000000000000000000000000000600082015250565b6000612f7a600a836120ee565b9150612f8582612f44565b602082019050919050565b60006020820190508181036000830152612fa981612f6d565b9050919050565b7f496e697469616c697a61626c653a20636f6e7472616374206973206e6f74206960008201527f6e697469616c697a696e67000000000000000000000000000000000000000000602082015250565b600061300c602b836120ee565b915061301782612fb0565b604082019050919050565b6000602082019050818103600083015261303b81612fff565b9050919050565b7f4f776e61626c653a2063616c6c6572206973206e6f7420746865206f776e6572600082015250565b60006130786020836120ee565b915061308382613042565b602082019050919050565b600060208201905081810360008301526130a78161306b565b9050919050565b7f536f756c426f756e64546f6b656e3a20616c726561647920686176652061207360008201527f6f756c20626f756e6420746f6b656e0000000000000000000000000000000000602082015250565b600061310a602f836120ee565b9150613115826130ae565b604082019050919050565b60006020820190508181036000830152613139816130fd565b9050919050565b7f4e487b7100000000000000000000000000000000000000000000000000000000600052601160045260246000fd5b600061317a82612195565b91507fffffffffffffffffffffffffffffffffffffffffffffffffffffffffffffffff82036131ac576131ab613140565b5b600182019050919050565b600081905092915050565b600081546131cf816127b4565b6131d981866131b7565b945060018216600081146131f457600181146132095761323c565b60ff198316865281151582028601935061323c565b61321285612b57565b60005b8381101561323457815481890152600182019150602081019050613215565b838801955050505b50505092915050565b6000613250826120e3565b61325a81856131b7565b935061326a8185602086016120ff565b80840191505092915050565b600061328282856131c2565b915061328e8284613245565b91508190509392505050565b7f4e487b7100000000000000000000000000000000000000000000000000000000600052601260045260246000fd5b60006132d482612195565b91506132df83612195565b9250826132ef576132ee61329a565b5b828204905092915050565b600061330582612195565b915061331083612195565b925082820390508181111561332857613327613140565b5b92915050565b600061333982612195565b915061334483612195565b9250826133545761335361329a565b5b828206905092915050565b600061336a82612195565b915061337583612195565b925082820190508082111561338d5761338c613140565b5b92915050565b7f4e487b7100000000000000000000000000000000000000000000000000000000600052603260045260246000fd5b7f414c52454144595f4d494e544544000000000000000000000000000000000000600082015250565b60006133f8600e836120ee565b9150613403826133c2565b602082019050919050565b60006020820190508181036000830152613427816133eb565b905091905056fea2646970667358221220e017ec303d8dacccf3e3192c445d5af32b2d2acf830bf27ad0ba08f82fb7a81b64736f6c63430008110033",
  "devdoc": {
    "kind": "dev",
    "methods": {
      "owner()": {
        "details": "Returns the address of the current owner."
      },
      "renounceOwnership()": {
        "details": "Leaves the contract without owner. It will not be possible to call `onlyOwner` functions anymore. Can only be called by the current owner. NOTE: Renouncing ownership will leave the contract without an owner, thereby removing any functionality that is only available to the owner."
      },
      "transferOwnership(address)": {
        "details": "Transfers ownership of the contract to a new account (`newOwner`). Can only be called by the current owner."
      }
    },
    "title": "Profile NFT",
    "version": 1
  },
  "userdoc": {
    "kind": "user",
    "methods": {
      "mint(address)": {
        "notice": "Mint a profile NFT for a user         It is minted by the owner so user no need for gas fee"
      }
    },
    "notice": "This is the user profile NFT on blockchain academy platform         It is a soul bound token, which means it         - can not be transferred         - can not mint more than one for each user         - can be burned (will have side effects)         Profile NFT can link other NFTs to it, for example, after a user finished a course / task,         or attended some events.",
    "version": 1
  },
  "storageLayout": {
    "storage": [
      {
        "astId": 138,
        "contract": "contracts/profile/ProfileToken.sol:ProfileToken",
        "label": "_initialized",
        "offset": 0,
        "slot": "0",
        "type": "t_uint8"
      },
      {
        "astId": 141,
        "contract": "contracts/profile/ProfileToken.sol:ProfileToken",
        "label": "_initializing",
        "offset": 1,
        "slot": "0",
        "type": "t_bool"
      },
      {
        "astId": 752,
        "contract": "contracts/profile/ProfileToken.sol:ProfileToken",
        "label": "__gap",
        "offset": 0,
        "slot": "1",
        "type": "t_array(t_uint256)50_storage"
      },
      {
        "astId": 10,
        "contract": "contracts/profile/ProfileToken.sol:ProfileToken",
        "label": "_owner",
        "offset": 0,
        "slot": "51",
        "type": "t_address"
      },
      {
        "astId": 130,
        "contract": "contracts/profile/ProfileToken.sol:ProfileToken",
        "label": "__gap",
        "offset": 0,
        "slot": "52",
        "type": "t_array(t_uint256)49_storage"
      },
      {
        "astId": 1780,
        "contract": "contracts/profile/ProfileToken.sol:ProfileToken",
        "label": "name",
        "offset": 0,
        "slot": "101",
        "type": "t_string_storage"
      },
      {
        "astId": 1782,
        "contract": "contracts/profile/ProfileToken.sol:ProfileToken",
        "label": "symbol",
        "offset": 0,
        "slot": "102",
        "type": "t_string_storage"
      },
      {
        "astId": 1786,
        "contract": "contracts/profile/ProfileToken.sol:ProfileToken",
        "label": "ownerOf",
        "offset": 0,
        "slot": "103",
        "type": "t_mapping(t_uint256,t_address)"
      },
      {
        "astId": 1790,
        "contract": "contracts/profile/ProfileToken.sol:ProfileToken",
        "label": "balanceOf",
        "offset": 0,
        "slot": "104",
        "type": "t_mapping(t_address,t_uint256)"
      },
      {
        "astId": 1794,
        "contract": "contracts/profile/ProfileToken.sol:ProfileToken",
        "label": "getApproved",
        "offset": 0,
        "slot": "105",
        "type": "t_mapping(t_uint256,t_address)"
      },
      {
        "astId": 1800,
        "contract": "contracts/profile/ProfileToken.sol:ProfileToken",
        "label": "isApprovedForAll",
        "offset": 0,
        "slot": "106",
        "type": "t_mapping(t_address,t_mapping(t_address,t_bool))"
      },
      {
        "astId": 2524,
        "contract": "contracts/profile/ProfileToken.sol:ProfileToken",
        "label": "counter",
        "offset": 0,
        "slot": "107",
        "type": "t_uint256"
      },
      {
        "astId": 2528,
        "contract": "contracts/profile/ProfileToken.sol:ProfileToken",
        "label": "soulBoundTokenId",
        "offset": 0,
        "slot": "108",
        "type": "t_mapping(t_address,t_uint256)"
      },
      {
        "astId": 2414,
        "contract": "contracts/profile/ProfileToken.sol:ProfileToken",
        "label": "baseURI",
        "offset": 0,
        "slot": "109",
        "type": "t_string_storage"
      }
    ],
    "types": {
      "t_address": {
        "encoding": "inplace",
        "label": "address",
        "numberOfBytes": "20"
      },
      "t_array(t_uint256)49_storage": {
        "base": "t_uint256",
        "encoding": "inplace",
        "label": "uint256[49]",
        "numberOfBytes": "1568"
      },
      "t_array(t_uint256)50_storage": {
        "base": "t_uint256",
        "encoding": "inplace",
        "label": "uint256[50]",
        "numberOfBytes": "1600"
      },
      "t_bool": {
        "encoding": "inplace",
        "label": "bool",
        "numberOfBytes": "1"
      },
      "t_mapping(t_address,t_bool)": {
        "encoding": "mapping",
        "key": "t_address",
        "label": "mapping(address => bool)",
        "numberOfBytes": "32",
        "value": "t_bool"
      },
      "t_mapping(t_address,t_mapping(t_address,t_bool))": {
        "encoding": "mapping",
        "key": "t_address",
        "label": "mapping(address => mapping(address => bool))",
        "numberOfBytes": "32",
        "value": "t_mapping(t_address,t_bool)"
      },
      "t_mapping(t_address,t_uint256)": {
        "encoding": "mapping",
        "key": "t_address",
        "label": "mapping(address => uint256)",
        "numberOfBytes": "32",
        "value": "t_uint256"
      },
      "t_mapping(t_uint256,t_address)": {
        "encoding": "mapping",
        "key": "t_uint256",
        "label": "mapping(uint256 => address)",
        "numberOfBytes": "32",
        "value": "t_address"
      },
      "t_string_storage": {
        "encoding": "bytes",
        "label": "string",
        "numberOfBytes": "32"
      },
      "t_uint256": {
        "encoding": "inplace",
        "label": "uint256",
        "numberOfBytes": "32"
      },
      "t_uint8": {
        "encoding": "inplace",
        "label": "uint8",
        "numberOfBytes": "1"
      }
    }
  }
}