{
  "address": "0xec7e48a945710E9f03c694C7bCf52027d8a757C7",
  "abi": [
    {
      "anonymous": false,
      "inputs": [
        {
          "indexed": true,
          "internalType": "address",
          "name": "owner",
          "type": "address"
        },
        {
          "indexed": true,
          "internalType": "address",
          "name": "approved",
          "type": "address"
        },
        {
          "indexed": true,
          "internalType": "uint256",
          "name": "tokenId",
          "type": "uint256"
        }
      ],
      "name": "Approval",
      "type": "event"
    },
    {
      "anonymous": false,
      "inputs": [
        {
          "indexed": true,
          "internalType": "address",
          "name": "owner",
          "type": "address"
        },
        {
          "indexed": true,
          "internalType": "address",
          "name": "operator",
          "type": "address"
        },
        {
          "indexed": false,
          "internalType": "bool",
          "name": "approved",
          "type": "bool"
        }
      ],
      "name": "ApprovalForAll",
      "type": "event"
    },
    {
      "anonymous": false,
      "inputs": [
        {
          "indexed": false,
          "internalType": "string",
          "name": "oldURI",
          "type": "string"
        },
        {
          "indexed": false,
          "internalType": "string",
          "name": "newURI",
          "type": "string"
        }
      ],
      "name": "BaseURIChanged",
      "type": "event"
    },
    {
      "anonymous": false,
      "inputs": [
        {
          "indexed": true,
          "internalType": "uint256",
          "name": "eventId",
          "type": "uint256"
        },
        {
          "indexed": false,
          "internalType": "address",
          "name": "oldEventOwner",
          "type": "address"
        },
        {
          "indexed": false,
          "internalType": "address",
          "name": "eventOwner",
          "type": "address"
        }
      ],
      "name": "EventOwnerChanged",
      "type": "event"
    },
    {
      "anonymous": false,
      "inputs": [
        {
          "indexed": false,
          "internalType": "uint8",
          "name": "version",
          "type": "uint8"
        }
      ],
      "name": "Initialized",
      "type": "event"
    },
    {
      "anonymous": false,
      "inputs": [
        {
          "indexed": true,
          "internalType": "address",
          "name": "previousOwner",
          "type": "address"
        },
        {
          "indexed": true,
          "internalType": "address",
          "name": "newOwner",
          "type": "address"
        }
      ],
      "name": "OwnershipTransferred",
      "type": "event"
    },
    {
      "anonymous": false,
      "inputs": [
        {
          "indexed": false,
          "internalType": "uint256",
          "name": "tokenId",
          "type": "uint256"
        },
        {
          "indexed": false,
          "internalType": "uint256",
          "name": "eventId",
          "type": "uint256"
        }
      ],
      "name": "POANFTBurned",
      "type": "event"
    },
    {
      "anonymous": false,
      "inputs": [
        {
          "indexed": true,
          "internalType": "address",
          "name": "to",
          "type": "address"
        },
        {
          "indexed": true,
          "internalType": "uint256",
          "name": "tokenId",
          "type": "uint256"
        },
        {
          "indexed": true,
          "internalType": "uint256",
          "name": "eventId",
          "type": "uint256"
        }
      ],
      "name": "POANFTMinted",
      "type": "event"
    },
    {
      "anonymous": false,
      "inputs": [
        {
          "indexed": false,
          "internalType": "address",
          "name": "account",
          "type": "address"
        }
      ],
      "name": "Paused",
      "type": "event"
    },
    {
      "anonymous": false,
      "inputs": [
        {
          "indexed": true,
          "internalType": "address",
          "name": "from",
          "type": "address"
        },
        {
          "indexed": true,
          "internalType": "address",
          "name": "to",
          "type": "address"
        },
        {
          "indexed": true,
          "internalType": "uint256",
          "name": "tokenId",
          "type": "uint256"
        }
      ],
      "name": "Transfer",
      "type": "event"
    },
    {
      "anonymous": false,
      "inputs": [
        {
          "indexed": false,
          "internalType": "address",
          "name": "account",
          "type": "address"
        }
      ],
      "name": "Unpaused",
      "type": "event"
    },
    {
      "inputs": [
        {
          "internalType": "address",
          "name": "_spender",
          "type": "address"
        },
        {
          "internalType": "uint256",
          "name": "_tokenId",
          "type": "uint256"
        }
      ],
      "name": "approve",
      "outputs": [],
      "stateMutability": "nonpayable",
      "type": "function"
    },
    {
      "inputs": [
        {
          "internalType": "address",
          "name": "",
          "type": "address"
        }
      ],
      "name": "balanceOf",
      "outputs": [
        {
          "internalType": "uint256",
          "name": "",
          "type": "uint256"
        }
      ],
      "stateMutability": "view",
      "type": "function"
    },
    {
      "inputs": [],
      "name": "baseURI",
      "outputs": [
        {
          "internalType": "string",
          "name": "",
          "type": "string"
        }
      ],
      "stateMutability": "view",
      "type": "function"
    },
    {
      "inputs": [
        {
          "internalType": "uint256",
          "name": "_tokenId",
          "type": "uint256"
        }
      ],
      "name": "burn",
      "outputs": [],
      "stateMutability": "nonpayable",
      "type": "function"
    },
    {
      "inputs": [],
      "name": "counter",
      "outputs": [
        {
          "internalType": "uint256",
          "name": "",
          "type": "uint256"
        }
      ],
      "stateMutability": "view",
      "type": "function"
    },
    {
      "inputs": [
        {
          "internalType": "uint256",
          "name": "",
          "type": "uint256"
        }
      ],
      "name": "eventIds",
      "outputs": [
        {
          "internalType": "uint256",
          "name": "",
          "type": "uint256"
        }
      ],
      "stateMutability": "view",
      "type": "function"
    },
    {
      "inputs": [
        {
          "internalType": "uint256",
          "name": "",
          "type": "uint256"
        }
      ],
      "name": "eventOwner",
      "outputs": [
        {
          "internalType": "address",
          "name": "",
          "type": "address"
        }
      ],
      "stateMutability": "view",
      "type": "function"
    },
    {
      "inputs": [
        {
          "internalType": "uint256",
          "name": "",
          "type": "uint256"
        }
      ],
      "name": "expiryForEvents",
      "outputs": [
        {
          "internalType": "uint256",
          "name": "",
          "type": "uint256"
        }
      ],
      "stateMutability": "view",
      "type": "function"
    },
    {
      "inputs": [
        {
          "internalType": "uint256",
          "name": "",
          "type": "uint256"
        }
      ],
      "name": "getApproved",
      "outputs": [
        {
          "internalType": "address",
          "name": "",
          "type": "address"
        }
      ],
      "stateMutability": "view",
      "type": "function"
    },
    {
      "inputs": [
        {
          "internalType": "string",
          "name": "_name",
          "type": "string"
        },
        {
          "internalType": "string",
          "name": "_symbol",
          "type": "string"
        }
      ],
      "name": "initialize",
      "outputs": [],
      "stateMutability": "nonpayable",
      "type": "function"
    },
    {
      "inputs": [
        {
          "internalType": "string",
          "name": "_name",
          "type": "string"
        },
        {
          "internalType": "string",
          "name": "_symbol",
          "type": "string"
        }
      ],
      "name": "intialize",
      "outputs": [],
      "stateMutability": "nonpayable",
      "type": "function"
    },
    {
      "inputs": [
        {
          "internalType": "address",
          "name": "",
          "type": "address"
        },
        {
          "internalType": "address",
          "name": "",
          "type": "address"
        }
      ],
      "name": "isApprovedForAll",
      "outputs": [
        {
          "internalType": "bool",
          "name": "",
          "type": "bool"
        }
      ],
      "stateMutability": "view",
      "type": "function"
    },
    {
      "inputs": [
        {
          "internalType": "address",
          "name": "_to",
          "type": "address"
        },
        {
          "internalType": "uint256",
          "name": "_eventId",
          "type": "uint256"
        }
      ],
      "name": "mint",
      "outputs": [
        {
          "internalType": "uint256",
          "name": "",
          "type": "uint256"
        }
      ],
      "stateMutability": "nonpayable",
      "type": "function"
    },
    {
      "inputs": [],
      "name": "name",
      "outputs": [
        {
          "internalType": "string",
          "name": "",
          "type": "string"
        }
      ],
      "stateMutability": "view",
      "type": "function"
    },
    {
      "inputs": [],
      "name": "owner",
      "outputs": [
        {
          "internalType": "address",
          "name": "",
          "type": "address"
        }
      ],
      "stateMutability": "view",
      "type": "function"
    },
    {
      "inputs": [
        {
          "internalType": "uint256",
          "name": "",
          "type": "uint256"
        }
      ],
      "name": "ownerOf",
      "outputs": [
        {
          "internalType": "address",
          "name": "",
          "type": "address"
        }
      ],
      "stateMutability": "view",
      "type": "function"
    },
    {
      "inputs": [],
      "name": "paused",
      "outputs": [
        {
          "internalType": "bool",
          "name": "",
          "type": "bool"
        }
      ],
      "stateMutability": "view",
      "type": "function"
    },
    {
      "inputs": [],
      "name": "renounceOwnership",
      "outputs": [],
      "stateMutability": "nonpayable",
      "type": "function"
    },
    {
      "inputs": [
        {
          "internalType": "address",
          "name": "from",
          "type": "address"
        },
        {
          "internalType": "address",
          "name": "to",
          "type": "address"
        },
        {
          "internalType": "uint256",
          "name": "id",
          "type": "uint256"
        }
      ],
      "name": "safeTransferFrom",
      "outputs": [],
      "stateMutability": "nonpayable",
      "type": "function"
    },
    {
      "inputs": [
        {
          "internalType": "address",
          "name": "from",
          "type": "address"
        },
        {
          "internalType": "address",
          "name": "to",
          "type": "address"
        },
        {
          "internalType": "uint256",
          "name": "id",
          "type": "uint256"
        },
        {
          "internalType": "bytes",
          "name": "data",
          "type": "bytes"
        }
      ],
      "name": "safeTransferFrom",
      "outputs": [],
      "stateMutability": "nonpayable",
      "type": "function"
    },
    {
      "inputs": [
        {
          "internalType": "address",
          "name": "_operator",
          "type": "address"
        },
        {
          "internalType": "bool",
          "name": "_approved",
          "type": "bool"
        }
      ],
      "name": "setApprovalForAll",
      "outputs": [],
      "stateMutability": "nonpayable",
      "type": "function"
    },
    {
      "inputs": [
        {
          "internalType": "string",
          "name": "_uri",
          "type": "string"
        }
      ],
      "name": "setBaseURI",
      "outputs": [],
      "stateMutability": "nonpayable",
      "type": "function"
    },
    {
      "inputs": [
        {
          "internalType": "uint256",
          "name": "_eventId",
          "type": "uint256"
        },
        {
          "internalType": "address",
          "name": "_eventOwner",
          "type": "address"
        }
      ],
      "name": "setEventOwner",
      "outputs": [],
      "stateMutability": "nonpayable",
      "type": "function"
    },
    {
      "inputs": [
        {
          "internalType": "bytes4",
          "name": "interfaceId",
          "type": "bytes4"
        }
      ],
      "name": "supportsInterface",
      "outputs": [
        {
          "internalType": "bool",
          "name": "",
          "type": "bool"
        }
      ],
      "stateMutability": "view",
      "type": "function"
    },
    {
      "inputs": [],
      "name": "symbol",
      "outputs": [
        {
          "internalType": "string",
          "name": "",
          "type": "string"
        }
      ],
      "stateMutability": "view",
      "type": "function"
    },
    {
      "inputs": [
        {
          "internalType": "uint256",
          "name": "_tokenId",
          "type": "uint256"
        }
      ],
      "name": "tokenURI",
      "outputs": [
        {
          "internalType": "string",
          "name": "",
          "type": "string"
        }
      ],
      "stateMutability": "view",
      "type": "function"
    },
    {
      "inputs": [
        {
          "internalType": "address",
          "name": "from",
          "type": "address"
        },
        {
          "internalType": "address",
          "name": "to",
          "type": "address"
        },
        {
          "internalType": "uint256",
          "name": "id",
          "type": "uint256"
        }
      ],
      "name": "transferFrom",
      "outputs": [],
      "stateMutability": "nonpayable",
      "type": "function"
    },
    {
      "inputs": [
        {
          "internalType": "address",
          "name": "newOwner",
          "type": "address"
        }
      ],
      "name": "transferOwnership",
      "outputs": [],
      "stateMutability": "nonpayable",
      "type": "function"
    }
  ],
  "transactionHash": "0x6971ed2e67798635644ac53e96de3d7c9987a211fa832b7692fe1b9b37b63c39",
  "args": [],
  "numDeployments": 2,
  "solcInputHash": "f0b1f625b1034bcad97d394916d33a2c",
  "bytecode": "0x608060405234801561001057600080fd5b50613b3e806100206000396000f3fe608060405234801561001057600080fd5b50600436106101c45760003560e01c80636c0360eb116100f9578063a22cb46511610097578063c87b56dd11610071578063c87b56dd14610503578063e985e9c514610533578063f105a5f114610563578063f2fde38b1461057f576101c4565b8063a22cb4651461049b578063b4d59d27146104b7578063b88d4fde146104e7576101c4565b806385b984e2116100d357806385b984e2146104135780638da5cb5b1461042f57806395d89b411461044d578063998f6ac01461046b576101c4565b80636c0360eb146103bb57806370a08231146103d9578063715018a614610409576101c4565b806342966c68116101665780635c975abb116101405780635c975abb1461031f57806361bc221a1461033d5780636352211e1461035b57806364fa89f51461038b576101c4565b806342966c68146102cb5780634cd88b76146102e757806355f804b314610303576101c4565b8063095ea7b3116101a2578063095ea7b31461024757806323b872dd1461026357806340c10f191461027f57806342842e0e146102af576101c4565b806301ffc9a7146101c957806306fdde03146101f9578063081812fc14610217575b600080fd5b6101e360048036038101906101de91906125a0565b61059b565b6040516101f091906125e8565b60405180910390f35b61020161062d565b60405161020e9190612693565b60405180910390f35b610231600480360381019061022c91906126eb565b6106bb565b60405161023e9190612759565b60405180910390f35b610261600480360381019061025c91906127a0565b6106ee565b005b61027d600480360381019061027891906127e0565b6108d7565b005b610299600480360381019061029491906127a0565b610ce8565b6040516102a69190612842565b60405180910390f35b6102c960048036038101906102c491906127e0565b610fa4565b005b6102e560048036038101906102e091906126eb565b6110dc565b005b61030160048036038101906102fc9190612992565b611242565b005b61031d60048036038101906103189190612a0a565b611394565b005b6103276113e9565b60405161033491906125e8565b60405180910390f35b610345611400565b6040516103529190612842565b60405180910390f35b610375600480360381019061037091906126eb565b611406565b6040516103829190612759565b60405180910390f35b6103a560048036038101906103a091906126eb565b611439565b6040516103b29190612842565b60405180910390f35b6103c3611451565b6040516103d09190612693565b60405180910390f35b6103f360048036038101906103ee9190612a53565b6114df565b6040516104009190612842565b60405180910390f35b6104116114f7565b005b61042d60048036038101906104289190612a80565b61150b565b005b6104376115d6565b6040516104449190612759565b60405180910390f35b610455611600565b6040516104629190612693565b60405180910390f35b610485600480360381019061048091906126eb565b61168e565b6040516104929190612842565b60405180910390f35b6104b560048036038101906104b09190612aec565b6116a6565b005b6104d160048036038101906104cc91906126eb565b6117a3565b6040516104de9190612759565b60405180910390f35b61050160048036038101906104fc9190612b8c565b6117d6565b005b61051d600480360381019061051891906126eb565b611914565b60405161052a9190612693565b60405180910390f35b61054d60048036038101906105489190612c14565b611926565b60405161055a91906125e8565b60405180910390f35b61057d60048036038101906105789190612992565b611955565b005b61059960048036038101906105949190612a53565b611a97565b005b60006301ffc9a760e01b827bffffffffffffffffffffffffffffffffffffffffffffffffffffffff191614806105f657506380ac58cd60e01b827bffffffffffffffffffffffffffffffffffffffffffffffffffffffff1916145b806106265750635b5e139f60e01b827bffffffffffffffffffffffffffffffffffffffffffffffffffffffff1916145b9050919050565b6097805461063a90612c83565b80601f016020809104026020016040519081016040528092919081815260200182805461066690612c83565b80156106b35780601f10610688576101008083540402835291602001916106b3565b820191906000526020600020905b81548152906001019060200180831161069657829003601f168201915b505050505081565b609b6020528060005260406000206000915054906101000a900473ffffffffffffffffffffffffffffffffffffffff1681565b60006099600083815260200190815260200160002060009054906101000a900473ffffffffffffffffffffffffffffffffffffffff1690508073ffffffffffffffffffffffffffffffffffffffff163373ffffffffffffffffffffffffffffffffffffffff1614806107e65750609c60008273ffffffffffffffffffffffffffffffffffffffff1673ffffffffffffffffffffffffffffffffffffffff16815260200190815260200160002060003373ffffffffffffffffffffffffffffffffffffffff1673ffffffffffffffffffffffffffffffffffffffff16815260200190815260200160002060009054906101000a900460ff165b610825576040517f08c379a000000000000000000000000000000000000000000000000000000000815260040161081c90612d00565b60405180910390fd5b82609b600084815260200190815260200160002060006101000a81548173ffffffffffffffffffffffffffffffffffffffff021916908373ffffffffffffffffffffffffffffffffffffffff160217905550818373ffffffffffffffffffffffffffffffffffffffff168273ffffffffffffffffffffffffffffffffffffffff167f8c5be1e5ebec7d5bd14f71427d1e84f3dd0314c0f7b2291e5b200ac8c7c3b92560405160405180910390a4505050565b6108e2838383611b1a565b6099600082815260200190815260200160002060009054906101000a900473ffffffffffffffffffffffffffffffffffffffff1673ffffffffffffffffffffffffffffffffffffffff168373ffffffffffffffffffffffffffffffffffffffff1614610983576040517f08c379a000000000000000000000000000000000000000000000000000000000815260040161097a90612d6c565b60405180910390fd5b600073ffffffffffffffffffffffffffffffffffffffff168273ffffffffffffffffffffffffffffffffffffffff16036109f2576040517f08c379a00000000000000000000000000000000000000000000000000000000081526004016109e990612dd8565b60405180910390fd5b8273ffffffffffffffffffffffffffffffffffffffff163373ffffffffffffffffffffffffffffffffffffffff161480610ab25750609c60008473ffffffffffffffffffffffffffffffffffffffff1673ffffffffffffffffffffffffffffffffffffffff16815260200190815260200160002060003373ffffffffffffffffffffffffffffffffffffffff1673ffffffffffffffffffffffffffffffffffffffff16815260200190815260200160002060009054906101000a900460ff165b80610b1b5750609b600082815260200190815260200160002060009054906101000a900473ffffffffffffffffffffffffffffffffffffffff1673ffffffffffffffffffffffffffffffffffffffff163373ffffffffffffffffffffffffffffffffffffffff16145b610b5a576040517f08c379a0000000000000000000000000000000000000000000000000000000008152600401610b5190612d00565b60405180910390fd5b609a60008473ffffffffffffffffffffffffffffffffffffffff1673ffffffffffffffffffffffffffffffffffffffff168152602001908152602001600020600081546001900391905081905550609a60008373ffffffffffffffffffffffffffffffffffffffff1673ffffffffffffffffffffffffffffffffffffffff1681526020019081526020016000206000815460010191905081905550816099600083815260200190815260200160002060006101000a81548173ffffffffffffffffffffffffffffffffffffffff021916908373ffffffffffffffffffffffffffffffffffffffff160217905550609b600082815260200190815260200160002060006101000a81549073ffffffffffffffffffffffffffffffffffffffff0219169055808273ffffffffffffffffffffffffffffffffffffffff168473ffffffffffffffffffffffffffffffffffffffff167fddf252ad1be2c89b69c2b068fc378daa952ba7f163c4a11628f55a4df523b3ef60405160405180910390a4610ce3838383611b1f565b505050565b600081600060a0600083815260200190815260200160002054905060008114610d4e57804210610d4d576040517f08c379a0000000000000000000000000000000000000000000000000000000008152600401610d4490612e6a565b60405180910390fd5b5b83610d576115d6565b73ffffffffffffffffffffffffffffffffffffffff163373ffffffffffffffffffffffffffffffffffffffff161480610dee575060a1600082815260200190815260200160002060009054906101000a900473ffffffffffffffffffffffffffffffffffffffff1673ffffffffffffffffffffffffffffffffffffffff163373ffffffffffffffffffffffffffffffffffffffff16145b610e2d576040517f08c379a0000000000000000000000000000000000000000000000000000000008152600401610e2490612efc565b60405180910390fd5b600060a260008873ffffffffffffffffffffffffffffffffffffffff1673ffffffffffffffffffffffffffffffffffffffff16815260200190815260200160002060008781526020019081526020016000205414610ec0576040517f08c379a0000000000000000000000000000000000000000000000000000000008152600401610eb790612f68565b60405180910390fd5b6000609d6000815480929190610ed590612fb7565b919050559050610ee58782611b24565b85609f6000838152602001908152602001600020819055508060a260008973ffffffffffffffffffffffffffffffffffffffff1673ffffffffffffffffffffffffffffffffffffffff16815260200190815260200160002060008881526020019081526020016000208190555085818873ffffffffffffffffffffffffffffffffffffffff167f3f3bbb46b1493d3a3c23fb54fe1690c322b8f527c0b8dfc0fc0e1171d582817560405160405180910390a48094505050505092915050565b610faf8383836108d7565b60008273ffffffffffffffffffffffffffffffffffffffff163b1480611098575063150b7a0260e01b7bffffffffffffffffffffffffffffffffffffffffffffffffffffffff19168273ffffffffffffffffffffffffffffffffffffffff1663150b7a023386856040518463ffffffff1660e01b815260040161103493929190613036565b6020604051808303816000875af1158015611053573d6000803e3d6000fd5b505050506040513d601f19601f820116820180604052508101906110779190613095565b7bffffffffffffffffffffffffffffffffffffffffffffffffffffffff1916145b6110d7576040517f08c379a00000000000000000000000000000000000000000000000000000000081526004016110ce9061310e565b60405180910390fd5b505050565b3373ffffffffffffffffffffffffffffffffffffffff166099600083815260200190815260200160002060009054906101000a900473ffffffffffffffffffffffffffffffffffffffff1673ffffffffffffffffffffffffffffffffffffffff161461117d576040517f08c379a00000000000000000000000000000000000000000000000000000000081526004016111749061317a565b60405180910390fd5b61118681611c5b565b6000609f600083815260200190815260200160002054905060a260003373ffffffffffffffffffffffffffffffffffffffff1673ffffffffffffffffffffffffffffffffffffffff1681526020019081526020016000206000828152602001908152602001600020600090557f174e294080ac26e758ed9757419556c2e1bcfff9724417643a378d78f287a17f82609f60008581526020019081526020016000205460405161123692919061319a565b60405180910390a15050565b60008060019054906101000a900460ff161590508080156112735750600160008054906101000a900460ff1660ff16105b806112a0575061128230611e1c565b15801561129f5750600160008054906101000a900460ff1660ff16145b5b6112df576040517f08c379a00000000000000000000000000000000000000000000000000000000081526004016112d690613235565b60405180910390fd5b60016000806101000a81548160ff021916908360ff160217905550801561131c576001600060016101000a81548160ff0219169083151502179055505b611324611e3f565b61132c611e98565b6113368383611ef1565b801561138f5760008060016101000a81548160ff0219169083151502179055507f7f26b83ff96e1f2b6a682f133852f6798a09c465da95921460cefb3847402498600160405161138691906132a7565b60405180910390a15b505050565b61139c611f64565b7fc41b7cb64e5be01af4afc2641afc861432136270f4206b7773f229b658b9669981609e6040516113ce92919061335b565b60405180910390a180609e90816113e5919061351f565b5050565b6000606560009054906101000a900460ff16905090565b609d5481565b60996020528060005260406000206000915054906101000a900473ffffffffffffffffffffffffffffffffffffffff1681565b60a06020528060005260406000206000915090505481565b609e805461145e90612c83565b80601f016020809104026020016040519081016040528092919081815260200182805461148a90612c83565b80156114d75780601f106114ac576101008083540402835291602001916114d7565b820191906000526020600020905b8154815290600101906020018083116114ba57829003601f168201915b505050505081565b609a6020528060005260406000206000915090505481565b6114ff611f64565b6115096000611fe2565b565b611513611f64565b817f153992e28a842ed0d525ca079ad41bdad7a8250e52a8d56893c17bd25ccc10ad60a1600085815260200190815260200160002060009054906101000a900473ffffffffffffffffffffffffffffffffffffffff16836040516115789291906135f1565b60405180910390a28060a1600084815260200190815260200160002060006101000a81548173ffffffffffffffffffffffffffffffffffffffff021916908373ffffffffffffffffffffffffffffffffffffffff1602179055505050565b6000603360009054906101000a900473ffffffffffffffffffffffffffffffffffffffff16905090565b6098805461160d90612c83565b80601f016020809104026020016040519081016040528092919081815260200182805461163990612c83565b80156116865780601f1061165b57610100808354040283529160200191611686565b820191906000526020600020905b81548152906001019060200180831161166957829003601f168201915b505050505081565b609f6020528060005260406000206000915090505481565b80609c60003373ffffffffffffffffffffffffffffffffffffffff1673ffffffffffffffffffffffffffffffffffffffff16815260200190815260200160002060008473ffffffffffffffffffffffffffffffffffffffff1673ffffffffffffffffffffffffffffffffffffffff16815260200190815260200160002060006101000a81548160ff0219169083151502179055508173ffffffffffffffffffffffffffffffffffffffff163373ffffffffffffffffffffffffffffffffffffffff167f17307eab39ab6107e8899845ad3d59bd9653f200f220920489ca2b5937696c318360405161179791906125e8565b60405180910390a35050565b60a16020528060005260406000206000915054906101000a900473ffffffffffffffffffffffffffffffffffffffff1681565b6117e18585856108d7565b60008473ffffffffffffffffffffffffffffffffffffffff163b14806118ce575063150b7a0260e01b7bffffffffffffffffffffffffffffffffffffffffffffffffffffffff19168473ffffffffffffffffffffffffffffffffffffffff1663150b7a0233888787876040518663ffffffff1660e01b815260040161186a959493929190613647565b6020604051808303816000875af1158015611889573d6000803e3d6000fd5b505050506040513d601f19601f820116820180604052508101906118ad9190613095565b7bffffffffffffffffffffffffffffffffffffffffffffffffffffffff1916145b61190d576040517f08c379a00000000000000000000000000000000000000000000000000000000081526004016119049061310e565b60405180910390fd5b5050505050565b606061191f826120a8565b9050919050565b609c6020528160005260406000206020528060005260406000206000915091509054906101000a900460ff1681565b60008060019054906101000a900460ff161590508080156119865750600160008054906101000a900460ff1660ff16105b806119b3575061199530611e1c565b1580156119b25750600160008054906101000a900460ff1660ff16145b5b6119f2576040517f08c379a00000000000000000000000000000000000000000000000000000000081526004016119e990613235565b60405180910390fd5b60016000806101000a81548160ff021916908360ff1602179055508015611a2f576001600060016101000a81548160ff0219169083151502179055505b611a398383611ef1565b8015611a925760008060016101000a81548160ff0219169083151502179055507f7f26b83ff96e1f2b6a682f133852f6798a09c465da95921460cefb38474024986001604051611a8991906132a7565b60405180910390a15b505050565b611a9f611f64565b600073ffffffffffffffffffffffffffffffffffffffff168173ffffffffffffffffffffffffffffffffffffffff1603611b0e576040517f08c379a0000000000000000000000000000000000000000000000000000000008152600401611b0590613707565b60405180910390fd5b611b1781611fe2565b50565b505050565b505050565b611b2e82826120ef565b60008273ffffffffffffffffffffffffffffffffffffffff163b1480611c18575063150b7a0260e01b7bffffffffffffffffffffffffffffffffffffffffffffffffffffffff19168273ffffffffffffffffffffffffffffffffffffffff1663150b7a02336000856040518463ffffffff1660e01b8152600401611bb493929190613036565b6020604051808303816000875af1158015611bd3573d6000803e3d6000fd5b505050506040513d601f19601f82011682018060405250810190611bf79190613095565b7bffffffffffffffffffffffffffffffffffffffffffffffffffffffff1916145b611c57576040517f08c379a0000000000000000000000000000000000000000000000000000000008152600401611c4e9061310e565b60405180910390fd5b5050565b60006099600083815260200190815260200160002060009054906101000a900473ffffffffffffffffffffffffffffffffffffffff169050600073ffffffffffffffffffffffffffffffffffffffff168173ffffffffffffffffffffffffffffffffffffffff1603611d02576040517f08c379a0000000000000000000000000000000000000000000000000000000008152600401611cf990613773565b60405180910390fd5b609a60008273ffffffffffffffffffffffffffffffffffffffff1673ffffffffffffffffffffffffffffffffffffffff1681526020019081526020016000206000815460019003919050819055506099600083815260200190815260200160002060006101000a81549073ffffffffffffffffffffffffffffffffffffffff0219169055609b600083815260200190815260200160002060006101000a81549073ffffffffffffffffffffffffffffffffffffffff021916905581600073ffffffffffffffffffffffffffffffffffffffff168273ffffffffffffffffffffffffffffffffffffffff167fddf252ad1be2c89b69c2b068fc378daa952ba7f163c4a11628f55a4df523b3ef60405160405180910390a45050565b6000808273ffffffffffffffffffffffffffffffffffffffff163b119050919050565b600060019054906101000a900460ff16611e8e576040517f08c379a0000000000000000000000000000000000000000000000000000000008152600401611e8590613805565b60405180910390fd5b611e966122ff565b565b600060019054906101000a900460ff16611ee7576040517f08c379a0000000000000000000000000000000000000000000000000000000008152600401611ede90613805565b60405180910390fd5b611eef612360565b565b600060019054906101000a900460ff16611f40576040517f08c379a0000000000000000000000000000000000000000000000000000000008152600401611f3790613805565b60405180910390fd5b8160979081611f4f919061351f565b508060989081611f5f919061351f565b505050565b611f6c6123cc565b73ffffffffffffffffffffffffffffffffffffffff16611f8a6115d6565b73ffffffffffffffffffffffffffffffffffffffff1614611fe0576040517f08c379a0000000000000000000000000000000000000000000000000000000008152600401611fd790613871565b60405180910390fd5b565b6000603360009054906101000a900473ffffffffffffffffffffffffffffffffffffffff16905081603360006101000a81548173ffffffffffffffffffffffffffffffffffffffff021916908373ffffffffffffffffffffffffffffffffffffffff1602179055508173ffffffffffffffffffffffffffffffffffffffff168173ffffffffffffffffffffffffffffffffffffffff167f8be0079c531659141344cd1fd0a4f28419497f9722a3daafe3b4186f6b6457e060405160405180910390a35050565b6060609e6120c8609f6000858152602001908152602001600020546123d4565b6040516020016120d9929190613950565b6040516020818303038152906040529050919050565b600073ffffffffffffffffffffffffffffffffffffffff168273ffffffffffffffffffffffffffffffffffffffff160361215e576040517f08c379a000000000000000000000000000000000000000000000000000000000815260040161215590612dd8565b60405180910390fd5b600073ffffffffffffffffffffffffffffffffffffffff166099600083815260200190815260200160002060009054906101000a900473ffffffffffffffffffffffffffffffffffffffff1673ffffffffffffffffffffffffffffffffffffffff1614612200576040517f08c379a00000000000000000000000000000000000000000000000000000000081526004016121f7906139c0565b60405180910390fd5b609a60008373ffffffffffffffffffffffffffffffffffffffff1673ffffffffffffffffffffffffffffffffffffffff1681526020019081526020016000206000815460010191905081905550816099600083815260200190815260200160002060006101000a81548173ffffffffffffffffffffffffffffffffffffffff021916908373ffffffffffffffffffffffffffffffffffffffff160217905550808273ffffffffffffffffffffffffffffffffffffffff16600073ffffffffffffffffffffffffffffffffffffffff167fddf252ad1be2c89b69c2b068fc378daa952ba7f163c4a11628f55a4df523b3ef60405160405180910390a45050565b600060019054906101000a900460ff1661234e576040517f08c379a000000000000000000000000000000000000000000000000000000000815260040161234590613805565b60405180910390fd5b61235e6123596123cc565b611fe2565b565b600060019054906101000a900460ff166123af576040517f08c379a00000000000000000000000000000000000000000000000000000000081526004016123a690613805565b60405180910390fd5b6000606560006101000a81548160ff021916908315150217905550565b600033905090565b60606000820361241b576040518060400160405280600181526020017f3000000000000000000000000000000000000000000000000000000000000000815250905061252f565b600082905060005b6000821461244d57808061243690612fb7565b915050600a826124469190613a0f565b9150612423565b60008167ffffffffffffffff81111561246957612468612867565b5b6040519080825280601f01601f19166020018201604052801561249b5781602001600182028036833780820191505090505b5090505b60008514612528576001826124b49190613a40565b9150600a856124c39190613a74565b60306124cf9190613aa5565b60f81b8183815181106124e5576124e4613ad9565b5b60200101907effffffffffffffffffffffffffffffffffffffffffffffffffffffffffffff1916908160001a905350600a856125219190613a0f565b945061249f565b8093505050505b919050565b6000604051905090565b600080fd5b600080fd5b60007fffffffff0000000000000000000000000000000000000000000000000000000082169050919050565b61257d81612548565b811461258857600080fd5b50565b60008135905061259a81612574565b92915050565b6000602082840312156125b6576125b561253e565b5b60006125c48482850161258b565b91505092915050565b60008115159050919050565b6125e2816125cd565b82525050565b60006020820190506125fd60008301846125d9565b92915050565b600081519050919050565b600082825260208201905092915050565b60005b8381101561263d578082015181840152602081019050612622565b60008484015250505050565b6000601f19601f8301169050919050565b600061266582612603565b61266f818561260e565b935061267f81856020860161261f565b61268881612649565b840191505092915050565b600060208201905081810360008301526126ad818461265a565b905092915050565b6000819050919050565b6126c8816126b5565b81146126d357600080fd5b50565b6000813590506126e5816126bf565b92915050565b6000602082840312156127015761270061253e565b5b600061270f848285016126d6565b91505092915050565b600073ffffffffffffffffffffffffffffffffffffffff82169050919050565b600061274382612718565b9050919050565b61275381612738565b82525050565b600060208201905061276e600083018461274a565b92915050565b61277d81612738565b811461278857600080fd5b50565b60008135905061279a81612774565b92915050565b600080604083850312156127b7576127b661253e565b5b60006127c58582860161278b565b92505060206127d6858286016126d6565b9150509250929050565b6000806000606084860312156127f9576127f861253e565b5b60006128078682870161278b565b93505060206128188682870161278b565b9250506040612829868287016126d6565b9150509250925092565b61283c816126b5565b82525050565b60006020820190506128576000830184612833565b92915050565b600080fd5b600080fd5b7f4e487b7100000000000000000000000000000000000000000000000000000000600052604160045260246000fd5b61289f82612649565b810181811067ffffffffffffffff821117156128be576128bd612867565b5b80604052505050565b60006128d1612534565b90506128dd8282612896565b919050565b600067ffffffffffffffff8211156128fd576128fc612867565b5b61290682612649565b9050602081019050919050565b82818337600083830152505050565b6000612935612930846128e2565b6128c7565b90508281526020810184848401111561295157612950612862565b5b61295c848285612913565b509392505050565b600082601f8301126129795761297861285d565b5b8135612989848260208601612922565b91505092915050565b600080604083850312156129a9576129a861253e565b5b600083013567ffffffffffffffff8111156129c7576129c6612543565b5b6129d385828601612964565b925050602083013567ffffffffffffffff8111156129f4576129f3612543565b5b612a0085828601612964565b9150509250929050565b600060208284031215612a2057612a1f61253e565b5b600082013567ffffffffffffffff811115612a3e57612a3d612543565b5b612a4a84828501612964565b91505092915050565b600060208284031215612a6957612a6861253e565b5b6000612a778482850161278b565b91505092915050565b60008060408385031215612a9757612a9661253e565b5b6000612aa5858286016126d6565b9250506020612ab68582860161278b565b9150509250929050565b612ac9816125cd565b8114612ad457600080fd5b50565b600081359050612ae681612ac0565b92915050565b60008060408385031215612b0357612b0261253e565b5b6000612b118582860161278b565b9250506020612b2285828601612ad7565b9150509250929050565b600080fd5b600080fd5b60008083601f840112612b4c57612b4b61285d565b5b8235905067ffffffffffffffff811115612b6957612b68612b2c565b5b602083019150836001820283011115612b8557612b84612b31565b5b9250929050565b600080600080600060808688031215612ba857612ba761253e565b5b6000612bb68882890161278b565b9550506020612bc78882890161278b565b9450506040612bd8888289016126d6565b935050606086013567ffffffffffffffff811115612bf957612bf8612543565b5b612c0588828901612b36565b92509250509295509295909350565b60008060408385031215612c2b57612c2a61253e565b5b6000612c398582860161278b565b9250506020612c4a8582860161278b565b9150509250929050565b7f4e487b7100000000000000000000000000000000000000000000000000000000600052602260045260246000fd5b60006002820490506001821680612c9b57607f821691505b602082108103612cae57612cad612c54565b5b50919050565b7f4e4f545f415554484f52495a4544000000000000000000000000000000000000600082015250565b6000612cea600e8361260e565b9150612cf582612cb4565b602082019050919050565b60006020820190508181036000830152612d1981612cdd565b9050919050565b7f57524f4e475f46524f4d00000000000000000000000000000000000000000000600082015250565b6000612d56600a8361260e565b9150612d6182612d20565b602082019050919050565b60006020820190508181036000830152612d8581612d49565b9050919050565b7f494e56414c49445f524543495049454e54000000000000000000000000000000600082015250565b6000612dc260118361260e565b9150612dcd82612d8c565b602082019050919050565b60006020820190508181036000830152612df181612db5565b9050919050565b7f436f757273654e46543a204e4654206973206e6f206c6f6e676572206176616960008201527f6c61626c6520666f72206d696e74000000000000000000000000000000000000602082015250565b6000612e54602e8361260e565b9150612e5f82612df8565b604082019050919050565b60006020820190508181036000830152612e8381612e47565b9050919050565b7f436f757273654e46543a204f6e6c79206f776e6572206f72206576656e74206f60008201527f776e65722063616e206d696e7400000000000000000000000000000000000000602082015250565b6000612ee6602d8361260e565b9150612ef182612e8a565b604082019050919050565b60006020820190508181036000830152612f1581612ed9565b9050919050565b7f436f757273654e46543a205573657220616c7265616479206d696e7465640000600082015250565b6000612f52601e8361260e565b9150612f5d82612f1c565b602082019050919050565b60006020820190508181036000830152612f8181612f45565b9050919050565b7f4e487b7100000000000000000000000000000000000000000000000000000000600052601160045260246000fd5b6000612fc2826126b5565b91507fffffffffffffffffffffffffffffffffffffffffffffffffffffffffffffffff8203612ff457612ff3612f88565b5b600182019050919050565b600082825260208201905092915050565b50565b6000613020600083612fff565b915061302b82613010565b600082019050919050565b600060808201905061304b600083018661274a565b613058602083018561274a565b6130656040830184612833565b818103606083015261307681613013565b9050949350505050565b60008151905061308f81612574565b92915050565b6000602082840312156130ab576130aa61253e565b5b60006130b984828501613080565b91505092915050565b7f554e534146455f524543495049454e5400000000000000000000000000000000600082015250565b60006130f860108361260e565b9150613103826130c2565b602082019050919050565b60006020820190508181036000830152613127816130eb565b9050919050565b7f4f6e6c792074686520746f6b656e206f776e65722063616e206275726e000000600082015250565b6000613164601d8361260e565b915061316f8261312e565b602082019050919050565b6000602082019050818103600083015261319381613157565b9050919050565b60006040820190506131af6000830185612833565b6131bc6020830184612833565b9392505050565b7f496e697469616c697a61626c653a20636f6e747261637420697320616c72656160008201527f647920696e697469616c697a6564000000000000000000000000000000000000602082015250565b600061321f602e8361260e565b915061322a826131c3565b604082019050919050565b6000602082019050818103600083015261324e81613212565b9050919050565b6000819050919050565b600060ff82169050919050565b6000819050919050565b600061329161328c61328784613255565b61326c565b61325f565b9050919050565b6132a181613276565b82525050565b60006020820190506132bc6000830184613298565b92915050565b60008190508160005260206000209050919050565b600081546132e481612c83565b6132ee818661260e565b94506001821660008114613309576001811461331f57613352565b60ff198316865281151560200286019350613352565b613328856132c2565b60005b8381101561334a5781548189015260018201915060208101905061332b565b808801955050505b50505092915050565b60006040820190508181036000830152613375818561265a565b9050818103602083015261338981846132d7565b90509392505050565b60006020601f8301049050919050565b600082821b905092915050565b6000600883026133df7fffffffffffffffffffffffffffffffffffffffffffffffffffffffffffffffff826133a2565b6133e986836133a2565b95508019841693508086168417925050509392505050565b600061341c613417613412846126b5565b61326c565b6126b5565b9050919050565b6000819050919050565b61343683613401565b61344a61344282613423565b8484546133af565b825550505050565b600090565b61345f613452565b61346a81848461342d565b505050565b5b8181101561348e57613483600082613457565b600181019050613470565b5050565b601f8211156134d3576134a4816132c2565b6134ad84613392565b810160208510156134bc578190505b6134d06134c885613392565b83018261346f565b50505b505050565b600082821c905092915050565b60006134f6600019846008026134d8565b1980831691505092915050565b600061350f83836134e5565b9150826002028217905092915050565b61352882612603565b67ffffffffffffffff81111561354157613540612867565b5b61354b8254612c83565b613556828285613492565b600060209050601f8311600181146135895760008415613577578287015190505b6135818582613503565b8655506135e9565b601f198416613597866132c2565b60005b828110156135bf5784890151825560018201915060208501945060208101905061359a565b868310156135dc57848901516135d8601f8916826134e5565b8355505b6001600288020188555050505b505050505050565b6000604082019050613606600083018561274a565b613613602083018461274a565b9392505050565b60006136268385612fff565b9350613633838584612913565b61363c83612649565b840190509392505050565b600060808201905061365c600083018861274a565b613669602083018761274a565b6136766040830186612833565b818103606083015261368981848661361a565b90509695505050505050565b7f4f776e61626c653a206e6577206f776e657220697320746865207a65726f206160008201527f6464726573730000000000000000000000000000000000000000000000000000602082015250565b60006136f160268361260e565b91506136fc82613695565b604082019050919050565b60006020820190508181036000830152613720816136e4565b9050919050565b7f4e4f545f4d494e54454400000000000000000000000000000000000000000000600082015250565b600061375d600a8361260e565b915061376882613727565b602082019050919050565b6000602082019050818103600083015261378c81613750565b9050919050565b7f496e697469616c697a61626c653a20636f6e7472616374206973206e6f74206960008201527f6e697469616c697a696e67000000000000000000000000000000000000000000602082015250565b60006137ef602b8361260e565b91506137fa82613793565b604082019050919050565b6000602082019050818103600083015261381e816137e2565b9050919050565b7f4f776e61626c653a2063616c6c6572206973206e6f7420746865206f776e6572600082015250565b600061385b60208361260e565b915061386682613825565b602082019050919050565b6000602082019050818103600083015261388a8161384e565b9050919050565b600081905092915050565b600081546138a981612c83565b6138b38186613891565b945060018216600081146138ce57600181146138e357613916565b60ff1983168652811515820286019350613916565b6138ec856132c2565b60005b8381101561390e578154818901526001820191506020810190506138ef565b838801955050505b50505092915050565b600061392a82612603565b6139348185613891565b935061394481856020860161261f565b80840191505092915050565b600061395c828561389c565b9150613968828461391f565b91508190509392505050565b7f414c52454144595f4d494e544544000000000000000000000000000000000000600082015250565b60006139aa600e8361260e565b91506139b582613974565b602082019050919050565b600060208201905081810360008301526139d98161399d565b9050919050565b7f4e487b7100000000000000000000000000000000000000000000000000000000600052601260045260246000fd5b6000613a1a826126b5565b9150613a25836126b5565b925082613a3557613a346139e0565b5b828204905092915050565b6000613a4b826126b5565b9150613a56836126b5565b9250828203905081811115613a6e57613a6d612f88565b5b92915050565b6000613a7f826126b5565b9150613a8a836126b5565b925082613a9a57613a996139e0565b5b828206905092915050565b6000613ab0826126b5565b9150613abb836126b5565b9250828201905080821115613ad357613ad2612f88565b5b92915050565b7f4e487b7100000000000000000000000000000000000000000000000000000000600052603260045260246000fdfea2646970667358221220d301e111471acbc1b1531b9f4d2d6656f7ddd9d352390bbf5a95d6dccad014c964736f6c63430008110033",
  "devdoc": {
    "kind": "dev",
    "methods": {
      "owner()": {
        "details": "Returns the address of the current owner."
      },
      "paused()": {
        "details": "Returns true if the contract is paused, and false otherwise."
      },
      "renounceOwnership()": {
        "details": "Leaves the contract without owner. It will not be possible to call `onlyOwner` functions anymore. Can only be called by the current owner. NOTE: Renouncing ownership will leave the contract without an owner, thereby removing any functionality that is only available to the owner."
      },
      "transferOwnership(address)": {
        "details": "Transfers ownership of the contract to a new account (`newOwner`). Can only be called by the current owner."
      }
    },
    "title": "Proof-of-Attendance NFT",
    "version": 1
  },
  "userdoc": {
    "kind": "user",
    "methods": {},
    "notice": "This contract is used to mint NFTs for Proof-of-Attendance events.         Event is identified by a unique event ID. Event details are stored on server.         Token URI = Base URI + Event Id         E.g.           Token id 2 and 5 are both for event 1, then           tokenURI(2) = tokenURI(5) = \"https://api.web3edu.xyz/poa/1",
    "version": 1
  },
  "storageLayout": {
    "storage": [
      {
        "astId": 138,
        "contract": "contracts/badge/POANFT.sol:POANFT",
        "label": "_initialized",
        "offset": 0,
        "slot": "0",
        "type": "t_uint8"
      },
      {
        "astId": 141,
        "contract": "contracts/badge/POANFT.sol:POANFT",
        "label": "_initializing",
        "offset": 1,
        "slot": "0",
        "type": "t_bool"
      },
      {
        "astId": 752,
        "contract": "contracts/badge/POANFT.sol:POANFT",
        "label": "__gap",
        "offset": 0,
        "slot": "1",
        "type": "t_array(t_uint256)50_storage"
      },
      {
        "astId": 10,
        "contract": "contracts/badge/POANFT.sol:POANFT",
        "label": "_owner",
        "offset": 0,
        "slot": "51",
        "type": "t_address"
      },
      {
        "astId": 130,
        "contract": "contracts/badge/POANFT.sol:POANFT",
        "label": "__gap",
        "offset": 0,
        "slot": "52",
        "type": "t_array(t_uint256)49_storage"
      },
      {
        "astId": 321,
        "contract": "contracts/badge/POANFT.sol:POANFT",
        "label": "_paused",
        "offset": 0,
        "slot": "101",
        "type": "t_bool"
      },
      {
        "astId": 426,
        "contract": "contracts/badge/POANFT.sol:POANFT",
        "label": "__gap",
        "offset": 0,
        "slot": "102",
        "type": "t_array(t_uint256)49_storage"
      },
      {
        "astId": 1564,
        "contract": "contracts/badge/POANFT.sol:POANFT",
        "label": "name",
        "offset": 0,
        "slot": "151",
        "type": "t_string_storage"
      },
      {
        "astId": 1566,
        "contract": "contracts/badge/POANFT.sol:POANFT",
        "label": "symbol",
        "offset": 0,
        "slot": "152",
        "type": "t_string_storage"
      },
      {
        "astId": 1570,
        "contract": "contracts/badge/POANFT.sol:POANFT",
        "label": "ownerOf",
        "offset": 0,
        "slot": "153",
        "type": "t_mapping(t_uint256,t_address)"
      },
      {
        "astId": 1574,
        "contract": "contracts/badge/POANFT.sol:POANFT",
        "label": "balanceOf",
        "offset": 0,
        "slot": "154",
        "type": "t_mapping(t_address,t_uint256)"
      },
      {
        "astId": 1578,
        "contract": "contracts/badge/POANFT.sol:POANFT",
        "label": "getApproved",
        "offset": 0,
        "slot": "155",
        "type": "t_mapping(t_uint256,t_address)"
      },
      {
        "astId": 1584,
        "contract": "contracts/badge/POANFT.sol:POANFT",
        "label": "isApprovedForAll",
        "offset": 0,
        "slot": "156",
        "type": "t_mapping(t_address,t_mapping(t_address,t_bool))"
      },
      {
        "astId": 1257,
        "contract": "contracts/badge/POANFT.sol:POANFT",
        "label": "counter",
        "offset": 0,
        "slot": "157",
        "type": "t_uint256"
      },
      {
        "astId": 1259,
        "contract": "contracts/badge/POANFT.sol:POANFT",
        "label": "baseURI",
        "offset": 0,
        "slot": "158",
        "type": "t_string_storage"
      },
      {
        "astId": 1263,
        "contract": "contracts/badge/POANFT.sol:POANFT",
        "label": "eventIds",
        "offset": 0,
        "slot": "159",
        "type": "t_mapping(t_uint256,t_uint256)"
      },
      {
        "astId": 1267,
        "contract": "contracts/badge/POANFT.sol:POANFT",
        "label": "expiryForEvents",
        "offset": 0,
        "slot": "160",
        "type": "t_mapping(t_uint256,t_uint256)"
      },
      {
        "astId": 1271,
        "contract": "contracts/badge/POANFT.sol:POANFT",
        "label": "eventOwner",
        "offset": 0,
        "slot": "161",
        "type": "t_mapping(t_uint256,t_address)"
      },
      {
        "astId": 1277,
        "contract": "contracts/badge/POANFT.sol:POANFT",
        "label": "userMinted",
        "offset": 0,
        "slot": "162",
        "type": "t_mapping(t_address,t_mapping(t_uint256,t_uint256))"
      }
    ],
    "types": {
      "t_address": {
        "encoding": "inplace",
        "label": "address",
        "numberOfBytes": "20"
      },
      "t_array(t_uint256)49_storage": {
        "base": "t_uint256",
        "encoding": "inplace",
        "label": "uint256[49]",
        "numberOfBytes": "1568"
      },
      "t_array(t_uint256)50_storage": {
        "base": "t_uint256",
        "encoding": "inplace",
        "label": "uint256[50]",
        "numberOfBytes": "1600"
      },
      "t_bool": {
        "encoding": "inplace",
        "label": "bool",
        "numberOfBytes": "1"
      },
      "t_mapping(t_address,t_bool)": {
        "encoding": "mapping",
        "key": "t_address",
        "label": "mapping(address => bool)",
        "numberOfBytes": "32",
        "value": "t_bool"
      },
      "t_mapping(t_address,t_mapping(t_address,t_bool))": {
        "encoding": "mapping",
        "key": "t_address",
        "label": "mapping(address => mapping(address => bool))",
        "numberOfBytes": "32",
        "value": "t_mapping(t_address,t_bool)"
      },
      "t_mapping(t_address,t_mapping(t_uint256,t_uint256))": {
        "encoding": "mapping",
        "key": "t_address",
        "label": "mapping(address => mapping(uint256 => uint256))",
        "numberOfBytes": "32",
        "value": "t_mapping(t_uint256,t_uint256)"
      },
      "t_mapping(t_address,t_uint256)": {
        "encoding": "mapping",
        "key": "t_address",
        "label": "mapping(address => uint256)",
        "numberOfBytes": "32",
        "value": "t_uint256"
      },
      "t_mapping(t_uint256,t_address)": {
        "encoding": "mapping",
        "key": "t_uint256",
        "label": "mapping(uint256 => address)",
        "numberOfBytes": "32",
        "value": "t_address"
      },
      "t_mapping(t_uint256,t_uint256)": {
        "encoding": "mapping",
        "key": "t_uint256",
        "label": "mapping(uint256 => uint256)",
        "numberOfBytes": "32",
        "value": "t_uint256"
      },
      "t_string_storage": {
        "encoding": "bytes",
        "label": "string",
        "numberOfBytes": "32"
      },
      "t_uint256": {
        "encoding": "inplace",
        "label": "uint256",
        "numberOfBytes": "32"
      },
      "t_uint8": {
        "encoding": "inplace",
        "label": "uint8",
        "numberOfBytes": "1"
      }
    }
  }
}