{
  "address": "0x416b8dE4DAc50D27893BD654532108BE37B4Cf41",
  "abi": [
    {
      "anonymous": false,
      "inputs": [
        {
          "indexed": true,
          "internalType": "address",
          "name": "owner",
          "type": "address"
        },
        {
          "indexed": true,
          "internalType": "address",
          "name": "approved",
          "type": "address"
        },
        {
          "indexed": true,
          "internalType": "uint256",
          "name": "tokenId",
          "type": "uint256"
        }
      ],
      "name": "Approval",
      "type": "event"
    },
    {
      "anonymous": false,
      "inputs": [
        {
          "indexed": true,
          "internalType": "address",
          "name": "owner",
          "type": "address"
        },
        {
          "indexed": true,
          "internalType": "address",
          "name": "operator",
          "type": "address"
        },
        {
          "indexed": false,
          "internalType": "bool",
          "name": "approved",
          "type": "bool"
        }
      ],
      "name": "ApprovalForAll",
      "type": "event"
    },
    {
      "anonymous": false,
      "inputs": [
        {
          "indexed": false,
          "internalType": "uint8",
          "name": "version",
          "type": "uint8"
        }
      ],
      "name": "Initialized",
      "type": "event"
    },
    {
      "anonymous": false,
      "inputs": [
        {
          "indexed": true,
          "internalType": "address",
          "name": "previousOwner",
          "type": "address"
        },
        {
          "indexed": true,
          "internalType": "address",
          "name": "newOwner",
          "type": "address"
        }
      ],
      "name": "OwnershipTransferred",
      "type": "event"
    },
    {
      "anonymous": false,
      "inputs": [
        {
          "indexed": true,
          "internalType": "address",
          "name": "from",
          "type": "address"
        },
        {
          "indexed": true,
          "internalType": "address",
          "name": "to",
          "type": "address"
        },
        {
          "indexed": true,
          "internalType": "uint256",
          "name": "tokenId",
          "type": "uint256"
        }
      ],
      "name": "Transfer",
      "type": "event"
    },
    {
      "inputs": [
        {
          "internalType": "address",
          "name": "_spender",
          "type": "address"
        },
        {
          "internalType": "uint256",
          "name": "_tokenId",
          "type": "uint256"
        }
      ],
      "name": "approve",
      "outputs": [],
      "stateMutability": "nonpayable",
      "type": "function"
    },
    {
      "inputs": [
        {
          "internalType": "address",
          "name": "",
          "type": "address"
        }
      ],
      "name": "balanceOf",
      "outputs": [
        {
          "internalType": "uint256",
          "name": "",
          "type": "uint256"
        }
      ],
      "stateMutability": "view",
      "type": "function"
    },
    {
      "inputs": [],
      "name": "baseURI",
      "outputs": [
        {
          "internalType": "string",
          "name": "",
          "type": "string"
        }
      ],
      "stateMutability": "view",
      "type": "function"
    },
    {
      "inputs": [],
      "name": "burn",
      "outputs": [],
      "stateMutability": "nonpayable",
      "type": "function"
    },
    {
      "inputs": [],
      "name": "counter",
      "outputs": [
        {
          "internalType": "uint256",
          "name": "",
          "type": "uint256"
        }
      ],
      "stateMutability": "view",
      "type": "function"
    },
    {
      "inputs": [
        {
          "internalType": "uint256",
          "name": "",
          "type": "uint256"
        }
      ],
      "name": "getApproved",
      "outputs": [
        {
          "internalType": "address",
          "name": "",
          "type": "address"
        }
      ],
      "stateMutability": "view",
      "type": "function"
    },
    {
      "inputs": [
        {
          "internalType": "string",
          "name": "_name",
          "type": "string"
        },
        {
          "internalType": "string",
          "name": "_symbol",
          "type": "string"
        }
      ],
      "name": "initialize",
      "outputs": [],
      "stateMutability": "nonpayable",
      "type": "function"
    },
    {
      "inputs": [
        {
          "internalType": "string",
          "name": "_name",
          "type": "string"
        },
        {
          "internalType": "string",
          "name": "_symbol",
          "type": "string"
        }
      ],
      "name": "intialize",
      "outputs": [],
      "stateMutability": "nonpayable",
      "type": "function"
    },
    {
      "inputs": [
        {
          "internalType": "address",
          "name": "",
          "type": "address"
        },
        {
          "internalType": "address",
          "name": "",
          "type": "address"
        }
      ],
      "name": "isApprovedForAll",
      "outputs": [
        {
          "internalType": "bool",
          "name": "",
          "type": "bool"
        }
      ],
      "stateMutability": "view",
      "type": "function"
    },
    {
      "inputs": [
        {
          "internalType": "address",
          "name": "_to",
          "type": "address"
        }
      ],
      "name": "mint",
      "outputs": [],
      "stateMutability": "nonpayable",
      "type": "function"
    },
    {
      "inputs": [],
      "name": "name",
      "outputs": [
        {
          "internalType": "string",
          "name": "",
          "type": "string"
        }
      ],
      "stateMutability": "view",
      "type": "function"
    },
    {
      "inputs": [],
      "name": "owner",
      "outputs": [
        {
          "internalType": "address",
          "name": "",
          "type": "address"
        }
      ],
      "stateMutability": "view",
      "type": "function"
    },
    {
      "inputs": [
        {
          "internalType": "uint256",
          "name": "",
          "type": "uint256"
        }
      ],
      "name": "ownerOf",
      "outputs": [
        {
          "internalType": "address",
          "name": "",
          "type": "address"
        }
      ],
      "stateMutability": "view",
      "type": "function"
    },
    {
      "inputs": [],
      "name": "renounceOwnership",
      "outputs": [],
      "stateMutability": "nonpayable",
      "type": "function"
    },
    {
      "inputs": [
        {
          "internalType": "address",
          "name": "from",
          "type": "address"
        },
        {
          "internalType": "address",
          "name": "to",
          "type": "address"
        },
        {
          "internalType": "uint256",
          "name": "id",
          "type": "uint256"
        }
      ],
      "name": "safeTransferFrom",
      "outputs": [],
      "stateMutability": "nonpayable",
      "type": "function"
    },
    {
      "inputs": [
        {
          "internalType": "address",
          "name": "from",
          "type": "address"
        },
        {
          "internalType": "address",
          "name": "to",
          "type": "address"
        },
        {
          "internalType": "uint256",
          "name": "id",
          "type": "uint256"
        },
        {
          "internalType": "bytes",
          "name": "data",
          "type": "bytes"
        }
      ],
      "name": "safeTransferFrom",
      "outputs": [],
      "stateMutability": "nonpayable",
      "type": "function"
    },
    {
      "inputs": [
        {
          "internalType": "address",
          "name": "_operator",
          "type": "address"
        },
        {
          "internalType": "bool",
          "name": "_approved",
          "type": "bool"
        }
      ],
      "name": "setApprovalForAll",
      "outputs": [],
      "stateMutability": "nonpayable",
      "type": "function"
    },
    {
      "inputs": [
        {
          "internalType": "string",
          "name": "_baseURI",
          "type": "string"
        }
      ],
      "name": "setBaseURI",
      "outputs": [],
      "stateMutability": "nonpayable",
      "type": "function"
    },
    {
      "inputs": [
        {
          "internalType": "address",
          "name": "",
          "type": "address"
        }
      ],
      "name": "soulBoundTokenId",
      "outputs": [
        {
          "internalType": "uint256",
          "name": "",
          "type": "uint256"
        }
      ],
      "stateMutability": "view",
      "type": "function"
    },
    {
      "inputs": [
        {
          "internalType": "bytes4",
          "name": "interfaceId",
          "type": "bytes4"
        }
      ],
      "name": "supportsInterface",
      "outputs": [
        {
          "internalType": "bool",
          "name": "",
          "type": "bool"
        }
      ],
      "stateMutability": "view",
      "type": "function"
    },
    {
      "inputs": [],
      "name": "symbol",
      "outputs": [
        {
          "internalType": "string",
          "name": "",
          "type": "string"
        }
      ],
      "stateMutability": "view",
      "type": "function"
    },
    {
      "inputs": [
        {
          "internalType": "uint256",
          "name": "_tokenId",
          "type": "uint256"
        }
      ],
      "name": "tokenURI",
      "outputs": [
        {
          "internalType": "string",
          "name": "",
          "type": "string"
        }
      ],
      "stateMutability": "view",
      "type": "function"
    },
    {
      "inputs": [
        {
          "internalType": "address",
          "name": "from",
          "type": "address"
        },
        {
          "internalType": "address",
          "name": "to",
          "type": "address"
        },
        {
          "internalType": "uint256",
          "name": "id",
          "type": "uint256"
        }
      ],
      "name": "transferFrom",
      "outputs": [],
      "stateMutability": "nonpayable",
      "type": "function"
    },
    {
      "inputs": [
        {
          "internalType": "address",
          "name": "newOwner",
          "type": "address"
        }
      ],
      "name": "transferOwnership",
      "outputs": [],
      "stateMutability": "nonpayable",
      "type": "function"
    }
  ],
  "transactionHash": "0xaffe6099dd057816e3ca9992911e11549801277276072345ad7af70372568534",
  "args": [],
  "numDeployments": 1,
  "solcInputHash": "fd5fcee012d6ed1bd64d5f21d79da059",
  "bytecode": "0x608060405234801561001057600080fd5b50613374806100206000396000f3fe608060405234801561001057600080fd5b50600436106101585760003560e01c80636c0360eb116100c3578063ab0d082b1161007c578063ab0d082b1461038b578063b88d4fde146103bb578063c87b56dd146103d7578063e985e9c514610407578063f105a5f114610437578063f2fde38b1461045357610158565b80636c0360eb146102db57806370a08231146102f9578063715018a6146103295780638da5cb5b1461033357806395d89b4114610351578063a22cb4651461036f57610158565b806344df8e701161011557806344df8e701461022f5780634cd88b761461023957806355f804b31461025557806361bc221a146102715780636352211e1461028f5780636a627842146102bf57610158565b806301ffc9a71461015d57806306fdde031461018d578063081812fc146101ab578063095ea7b3146101db57806323b872dd146101f757806342842e0e14610213575b600080fd5b61017760048036038101906101729190612021565b61046f565b6040516101849190612069565b60405180910390f35b610195610501565b6040516101a29190612114565b60405180910390f35b6101c560048036038101906101c0919061216c565b61058f565b6040516101d291906121da565b60405180910390f35b6101f560048036038101906101f09190612221565b6105c2565b005b610211600480360381019061020c9190612261565b6107ab565b005b61022d60048036038101906102289190612261565b610bbc565b005b610237610cf4565b005b610253600480360381019061024e91906123e9565b610d3e565b005b61026f600480360381019061026a9190612461565b610e88565b005b610279610ea3565b60405161028691906124b9565b60405180910390f35b6102a960048036038101906102a4919061216c565b610ea9565b6040516102b691906121da565b60405180910390f35b6102d960048036038101906102d491906124d4565b610edc565b005b6102e3610ef1565b6040516102f09190612114565b60405180910390f35b610313600480360381019061030e91906124d4565b610f7f565b60405161032091906124b9565b60405180910390f35b610331610f97565b005b61033b610fab565b60405161034891906121da565b60405180910390f35b610359610fd5565b6040516103669190612114565b60405180910390f35b6103896004803603810190610384919061252d565b611063565b005b6103a560048036038101906103a091906124d4565b611160565b6040516103b291906124b9565b60405180910390f35b6103d560048036038101906103d091906125cd565b611178565b005b6103f160048036038101906103ec919061216c565b6112b6565b6040516103fe9190612114565b60405180910390f35b610421600480360381019061041c9190612655565b6112c8565b60405161042e9190612069565b60405180910390f35b610451600480360381019061044c91906123e9565b6112f7565b005b61046d600480360381019061046891906124d4565b611439565b005b60006301ffc9a760e01b827bffffffffffffffffffffffffffffffffffffffffffffffffffffffff191614806104ca57506380ac58cd60e01b827bffffffffffffffffffffffffffffffffffffffffffffffffffffffff1916145b806104fa5750635b5e139f60e01b827bffffffffffffffffffffffffffffffffffffffffffffffffffffffff1916145b9050919050565b6065805461050e906126c4565b80601f016020809104026020016040519081016040528092919081815260200182805461053a906126c4565b80156105875780601f1061055c57610100808354040283529160200191610587565b820191906000526020600020905b81548152906001019060200180831161056a57829003601f168201915b505050505081565b60696020528060005260406000206000915054906101000a900473ffffffffffffffffffffffffffffffffffffffff1681565b60006067600083815260200190815260200160002060009054906101000a900473ffffffffffffffffffffffffffffffffffffffff1690508073ffffffffffffffffffffffffffffffffffffffff163373ffffffffffffffffffffffffffffffffffffffff1614806106ba5750606a60008273ffffffffffffffffffffffffffffffffffffffff1673ffffffffffffffffffffffffffffffffffffffff16815260200190815260200160002060003373ffffffffffffffffffffffffffffffffffffffff1673ffffffffffffffffffffffffffffffffffffffff16815260200190815260200160002060009054906101000a900460ff165b6106f9576040517f08c379a00000000000000000000000000000000000000000000000000000000081526004016106f090612741565b60405180910390fd5b826069600084815260200190815260200160002060006101000a81548173ffffffffffffffffffffffffffffffffffffffff021916908373ffffffffffffffffffffffffffffffffffffffff160217905550818373ffffffffffffffffffffffffffffffffffffffff168273ffffffffffffffffffffffffffffffffffffffff167f8c5be1e5ebec7d5bd14f71427d1e84f3dd0314c0f7b2291e5b200ac8c7c3b92560405160405180910390a4505050565b6107b68383836114bc565b6067600082815260200190815260200160002060009054906101000a900473ffffffffffffffffffffffffffffffffffffffff1673ffffffffffffffffffffffffffffffffffffffff168373ffffffffffffffffffffffffffffffffffffffff1614610857576040517f08c379a000000000000000000000000000000000000000000000000000000000815260040161084e906127ad565b60405180910390fd5b600073ffffffffffffffffffffffffffffffffffffffff168273ffffffffffffffffffffffffffffffffffffffff16036108c6576040517f08c379a00000000000000000000000000000000000000000000000000000000081526004016108bd90612819565b60405180910390fd5b8273ffffffffffffffffffffffffffffffffffffffff163373ffffffffffffffffffffffffffffffffffffffff1614806109865750606a60008473ffffffffffffffffffffffffffffffffffffffff1673ffffffffffffffffffffffffffffffffffffffff16815260200190815260200160002060003373ffffffffffffffffffffffffffffffffffffffff1673ffffffffffffffffffffffffffffffffffffffff16815260200190815260200160002060009054906101000a900460ff165b806109ef57506069600082815260200190815260200160002060009054906101000a900473ffffffffffffffffffffffffffffffffffffffff1673ffffffffffffffffffffffffffffffffffffffff163373ffffffffffffffffffffffffffffffffffffffff16145b610a2e576040517f08c379a0000000000000000000000000000000000000000000000000000000008152600401610a2590612741565b60405180910390fd5b606860008473ffffffffffffffffffffffffffffffffffffffff1673ffffffffffffffffffffffffffffffffffffffff168152602001908152602001600020600081546001900391905081905550606860008373ffffffffffffffffffffffffffffffffffffffff1673ffffffffffffffffffffffffffffffffffffffff1681526020019081526020016000206000815460010191905081905550816067600083815260200190815260200160002060006101000a81548173ffffffffffffffffffffffffffffffffffffffff021916908373ffffffffffffffffffffffffffffffffffffffff1602179055506069600082815260200190815260200160002060006101000a81549073ffffffffffffffffffffffffffffffffffffffff0219169055808273ffffffffffffffffffffffffffffffffffffffff168473ffffffffffffffffffffffffffffffffffffffff167fddf252ad1be2c89b69c2b068fc378daa952ba7f163c4a11628f55a4df523b3ef60405160405180910390a4610bb7838383611567565b505050565b610bc78383836107ab565b60008273ffffffffffffffffffffffffffffffffffffffff163b1480610cb0575063150b7a0260e01b7bffffffffffffffffffffffffffffffffffffffffffffffffffffffff19168273ffffffffffffffffffffffffffffffffffffffff1663150b7a023386856040518463ffffffff1660e01b8152600401610c4c93929190612870565b6020604051808303816000875af1158015610c6b573d6000803e3d6000fd5b505050506040513d601f19601f82011682018060405250810190610c8f91906128cf565b7bffffffffffffffffffffffffffffffffffffffffffffffffffffffff1916145b610cef576040517f08c379a0000000000000000000000000000000000000000000000000000000008152600401610ce690612948565b60405180910390fd5b505050565b610d3c606c60003373ffffffffffffffffffffffffffffffffffffffff1673ffffffffffffffffffffffffffffffffffffffff1681526020019081526020016000205461156c565b565b60008060019054906101000a900460ff16159050808015610d6f5750600160008054906101000a900460ff1660ff16105b80610d9c5750610d7e3061172d565b158015610d9b5750600160008054906101000a900460ff1660ff16145b5b610ddb576040517f08c379a0000000000000000000000000000000000000000000000000000000008152600401610dd2906129da565b60405180910390fd5b60016000806101000a81548160ff021916908360ff1602179055508015610e18576001600060016101000a81548160ff0219169083151502179055505b610e20611750565b610e2a83836117a9565b8015610e835760008060016101000a81548160ff0219169083151502179055507f7f26b83ff96e1f2b6a682f133852f6798a09c465da95921460cefb38474024986001604051610e7a9190612a4c565b60405180910390a15b505050565b610e90611806565b80606d9081610e9f9190612c09565b5050565b606b5481565b60676020528060005260406000206000915054906101000a900473ffffffffffffffffffffffffffffffffffffffff1681565b610ee4611806565b610eed81611884565b5050565b606d8054610efe906126c4565b80601f0160208091040260200160405190810160405280929190818152602001828054610f2a906126c4565b8015610f775780601f10610f4c57610100808354040283529160200191610f77565b820191906000526020600020905b815481529060010190602001808311610f5a57829003601f168201915b505050505081565b60686020528060005260406000206000915090505481565b610f9f611806565b610fa96000611938565b565b6000603360009054906101000a900473ffffffffffffffffffffffffffffffffffffffff16905090565b60668054610fe2906126c4565b80601f016020809104026020016040519081016040528092919081815260200182805461100e906126c4565b801561105b5780601f106110305761010080835404028352916020019161105b565b820191906000526020600020905b81548152906001019060200180831161103e57829003601f168201915b505050505081565b80606a60003373ffffffffffffffffffffffffffffffffffffffff1673ffffffffffffffffffffffffffffffffffffffff16815260200190815260200160002060008473ffffffffffffffffffffffffffffffffffffffff1673ffffffffffffffffffffffffffffffffffffffff16815260200190815260200160002060006101000a81548160ff0219169083151502179055508173ffffffffffffffffffffffffffffffffffffffff163373ffffffffffffffffffffffffffffffffffffffff167f17307eab39ab6107e8899845ad3d59bd9653f200f220920489ca2b5937696c31836040516111549190612069565b60405180910390a35050565b606c6020528060005260406000206000915090505481565b6111838585856107ab565b60008473ffffffffffffffffffffffffffffffffffffffff163b1480611270575063150b7a0260e01b7bffffffffffffffffffffffffffffffffffffffffffffffffffffffff19168473ffffffffffffffffffffffffffffffffffffffff1663150b7a0233888787876040518663ffffffff1660e01b815260040161120c959493929190612d08565b6020604051808303816000875af115801561122b573d6000803e3d6000fd5b505050506040513d601f19601f8201168201806040525081019061124f91906128cf565b7bffffffffffffffffffffffffffffffffffffffffffffffffffffffff1916145b6112af576040517f08c379a00000000000000000000000000000000000000000000000000000000081526004016112a690612948565b60405180910390fd5b5050505050565b60606112c1826119fe565b9050919050565b606a6020528160005260406000206020528060005260406000206000915091509054906101000a900460ff1681565b60008060019054906101000a900460ff161590508080156113285750600160008054906101000a900460ff1660ff16105b8061135557506113373061172d565b1580156113545750600160008054906101000a900460ff1660ff16145b5b611394576040517f08c379a000000000000000000000000000000000000000000000000000000000815260040161138b906129da565b60405180910390fd5b60016000806101000a81548160ff021916908360ff16021790555080156113d1576001600060016101000a81548160ff0219169083151502179055505b6113db8383611a32565b80156114345760008060016101000a81548160ff0219169083151502179055507f7f26b83ff96e1f2b6a682f133852f6798a09c465da95921460cefb3847402498600160405161142b9190612a4c565b60405180910390a15b505050565b611441611806565b600073ffffffffffffffffffffffffffffffffffffffff168173ffffffffffffffffffffffffffffffffffffffff16036114b0576040517f08c379a00000000000000000000000000000000000000000000000000000000081526004016114a790612dc8565b60405180910390fd5b6114b981611938565b50565b600073ffffffffffffffffffffffffffffffffffffffff168373ffffffffffffffffffffffffffffffffffffffff1614806115235750600073ffffffffffffffffffffffffffffffffffffffff168273ffffffffffffffffffffffffffffffffffffffff16145b611562576040517f08c379a000000000000000000000000000000000000000000000000000000000815260040161155990612e34565b60405180910390fd5b505050565b505050565b60006067600083815260200190815260200160002060009054906101000a900473ffffffffffffffffffffffffffffffffffffffff169050600073ffffffffffffffffffffffffffffffffffffffff168173ffffffffffffffffffffffffffffffffffffffff1603611613576040517f08c379a000000000000000000000000000000000000000000000000000000000815260040161160a90612ea0565b60405180910390fd5b606860008273ffffffffffffffffffffffffffffffffffffffff1673ffffffffffffffffffffffffffffffffffffffff1681526020019081526020016000206000815460019003919050819055506067600083815260200190815260200160002060006101000a81549073ffffffffffffffffffffffffffffffffffffffff02191690556069600083815260200190815260200160002060006101000a81549073ffffffffffffffffffffffffffffffffffffffff021916905581600073ffffffffffffffffffffffffffffffffffffffff168273ffffffffffffffffffffffffffffffffffffffff167fddf252ad1be2c89b69c2b068fc378daa952ba7f163c4a11628f55a4df523b3ef60405160405180910390a45050565b6000808273ffffffffffffffffffffffffffffffffffffffff163b119050919050565b600060019054906101000a900460ff1661179f576040517f08c379a000000000000000000000000000000000000000000000000000000000815260040161179690612f32565b60405180910390fd5b6117a7611aa5565b565b600060019054906101000a900460ff166117f8576040517f08c379a00000000000000000000000000000000000000000000000000000000081526004016117ef90612f32565b60405180910390fd5b6118028282611a32565b5050565b61180e611b06565b73ffffffffffffffffffffffffffffffffffffffff1661182c610fab565b73ffffffffffffffffffffffffffffffffffffffff1614611882576040517f08c379a000000000000000000000000000000000000000000000000000000000815260040161187990612f9e565b60405180910390fd5b565b6000816000606860008373ffffffffffffffffffffffffffffffffffffffff1673ffffffffffffffffffffffffffffffffffffffff1681526020019081526020016000205414611909576040517f08c379a000000000000000000000000000000000000000000000000000000000815260040161190090613030565b60405180910390fd5b6000606b600081548092919061191e9061307f565b91905055905061192e8482611b0e565b8092505050919050565b6000603360009054906101000a900473ffffffffffffffffffffffffffffffffffffffff16905081603360006101000a81548173ffffffffffffffffffffffffffffffffffffffff021916908373ffffffffffffffffffffffffffffffffffffffff1602179055508173ffffffffffffffffffffffffffffffffffffffff168173ffffffffffffffffffffffffffffffffffffffff167f8be0079c531659141344cd1fd0a4f28419497f9722a3daafe3b4186f6b6457e060405160405180910390a35050565b6060606d611a0b83611c45565b604051602001611a1c929190613186565b6040516020818303038152906040529050919050565b600060019054906101000a900460ff16611a81576040517f08c379a0000000000000000000000000000000000000000000000000000000008152600401611a7890612f32565b60405180910390fd5b8160659081611a909190612c09565b508060669081611aa09190612c09565b505050565b600060019054906101000a900460ff16611af4576040517f08c379a0000000000000000000000000000000000000000000000000000000008152600401611aeb90612f32565b60405180910390fd5b611b04611aff611b06565b611938565b565b600033905090565b611b188282611da5565b60008273ffffffffffffffffffffffffffffffffffffffff163b1480611c02575063150b7a0260e01b7bffffffffffffffffffffffffffffffffffffffffffffffffffffffff19168273ffffffffffffffffffffffffffffffffffffffff1663150b7a02336000856040518463ffffffff1660e01b8152600401611b9e93929190612870565b6020604051808303816000875af1158015611bbd573d6000803e3d6000fd5b505050506040513d601f19601f82011682018060405250810190611be191906128cf565b7bffffffffffffffffffffffffffffffffffffffffffffffffffffffff1916145b611c41576040517f08c379a0000000000000000000000000000000000000000000000000000000008152600401611c3890612948565b60405180910390fd5b5050565b606060008203611c8c576040518060400160405280600181526020017f30000000000000000000000000000000000000000000000000000000000000008152509050611da0565b600082905060005b60008214611cbe578080611ca79061307f565b915050600a82611cb791906131d9565b9150611c94565b60008167ffffffffffffffff811115611cda57611cd96122be565b5b6040519080825280601f01601f191660200182016040528015611d0c5781602001600182028036833780820191505090505b5090505b60008514611d9957600182611d25919061320a565b9150600a85611d34919061323e565b6030611d40919061326f565b60f81b818381518110611d5657611d556132a3565b5b60200101907effffffffffffffffffffffffffffffffffffffffffffffffffffffffffffff1916908160001a905350600a85611d9291906131d9565b9450611d10565b8093505050505b919050565b600073ffffffffffffffffffffffffffffffffffffffff168273ffffffffffffffffffffffffffffffffffffffff1603611e14576040517f08c379a0000000000000000000000000000000000000000000000000000000008152600401611e0b90612819565b60405180910390fd5b600073ffffffffffffffffffffffffffffffffffffffff166067600083815260200190815260200160002060009054906101000a900473ffffffffffffffffffffffffffffffffffffffff1673ffffffffffffffffffffffffffffffffffffffff1614611eb6576040517f08c379a0000000000000000000000000000000000000000000000000000000008152600401611ead9061331e565b60405180910390fd5b606860008373ffffffffffffffffffffffffffffffffffffffff1673ffffffffffffffffffffffffffffffffffffffff1681526020019081526020016000206000815460010191905081905550816067600083815260200190815260200160002060006101000a81548173ffffffffffffffffffffffffffffffffffffffff021916908373ffffffffffffffffffffffffffffffffffffffff160217905550808273ffffffffffffffffffffffffffffffffffffffff16600073ffffffffffffffffffffffffffffffffffffffff167fddf252ad1be2c89b69c2b068fc378daa952ba7f163c4a11628f55a4df523b3ef60405160405180910390a45050565b6000604051905090565b600080fd5b600080fd5b60007fffffffff0000000000000000000000000000000000000000000000000000000082169050919050565b611ffe81611fc9565b811461200957600080fd5b50565b60008135905061201b81611ff5565b92915050565b60006020828403121561203757612036611fbf565b5b60006120458482850161200c565b91505092915050565b60008115159050919050565b6120638161204e565b82525050565b600060208201905061207e600083018461205a565b92915050565b600081519050919050565b600082825260208201905092915050565b60005b838110156120be5780820151818401526020810190506120a3565b60008484015250505050565b6000601f19601f8301169050919050565b60006120e682612084565b6120f0818561208f565b93506121008185602086016120a0565b612109816120ca565b840191505092915050565b6000602082019050818103600083015261212e81846120db565b905092915050565b6000819050919050565b61214981612136565b811461215457600080fd5b50565b60008135905061216681612140565b92915050565b60006020828403121561218257612181611fbf565b5b600061219084828501612157565b91505092915050565b600073ffffffffffffffffffffffffffffffffffffffff82169050919050565b60006121c482612199565b9050919050565b6121d4816121b9565b82525050565b60006020820190506121ef60008301846121cb565b92915050565b6121fe816121b9565b811461220957600080fd5b50565b60008135905061221b816121f5565b92915050565b6000806040838503121561223857612237611fbf565b5b60006122468582860161220c565b925050602061225785828601612157565b9150509250929050565b60008060006060848603121561227a57612279611fbf565b5b60006122888682870161220c565b93505060206122998682870161220c565b92505060406122aa86828701612157565b9150509250925092565b600080fd5b600080fd5b7f4e487b7100000000000000000000000000000000000000000000000000000000600052604160045260246000fd5b6122f6826120ca565b810181811067ffffffffffffffff82111715612315576123146122be565b5b80604052505050565b6000612328611fb5565b905061233482826122ed565b919050565b600067ffffffffffffffff821115612354576123536122be565b5b61235d826120ca565b9050602081019050919050565b82818337600083830152505050565b600061238c61238784612339565b61231e565b9050828152602081018484840111156123a8576123a76122b9565b5b6123b384828561236a565b509392505050565b600082601f8301126123d0576123cf6122b4565b5b81356123e0848260208601612379565b91505092915050565b60008060408385031215612400576123ff611fbf565b5b600083013567ffffffffffffffff81111561241e5761241d611fc4565b5b61242a858286016123bb565b925050602083013567ffffffffffffffff81111561244b5761244a611fc4565b5b612457858286016123bb565b9150509250929050565b60006020828403121561247757612476611fbf565b5b600082013567ffffffffffffffff81111561249557612494611fc4565b5b6124a1848285016123bb565b91505092915050565b6124b381612136565b82525050565b60006020820190506124ce60008301846124aa565b92915050565b6000602082840312156124ea576124e9611fbf565b5b60006124f88482850161220c565b91505092915050565b61250a8161204e565b811461251557600080fd5b50565b60008135905061252781612501565b92915050565b6000806040838503121561254457612543611fbf565b5b60006125528582860161220c565b925050602061256385828601612518565b9150509250929050565b600080fd5b600080fd5b60008083601f84011261258d5761258c6122b4565b5b8235905067ffffffffffffffff8111156125aa576125a961256d565b5b6020830191508360018202830111156125c6576125c5612572565b5b9250929050565b6000806000806000608086880312156125e9576125e8611fbf565b5b60006125f78882890161220c565b95505060206126088882890161220c565b945050604061261988828901612157565b935050606086013567ffffffffffffffff81111561263a57612639611fc4565b5b61264688828901612577565b92509250509295509295909350565b6000806040838503121561266c5761266b611fbf565b5b600061267a8582860161220c565b925050602061268b8582860161220c565b9150509250929050565b7f4e487b7100000000000000000000000000000000000000000000000000000000600052602260045260246000fd5b600060028204905060018216806126dc57607f821691505b6020821081036126ef576126ee612695565b5b50919050565b7f4e4f545f415554484f52495a4544000000000000000000000000000000000000600082015250565b600061272b600e8361208f565b9150612736826126f5565b602082019050919050565b6000602082019050818103600083015261275a8161271e565b9050919050565b7f57524f4e475f46524f4d00000000000000000000000000000000000000000000600082015250565b6000612797600a8361208f565b91506127a282612761565b602082019050919050565b600060208201905081810360008301526127c68161278a565b9050919050565b7f494e56414c49445f524543495049454e54000000000000000000000000000000600082015250565b600061280360118361208f565b915061280e826127cd565b602082019050919050565b60006020820190508181036000830152612832816127f6565b9050919050565b600082825260208201905092915050565b50565b600061285a600083612839565b91506128658261284a565b600082019050919050565b600060808201905061288560008301866121cb565b61289260208301856121cb565b61289f60408301846124aa565b81810360608301526128b08161284d565b9050949350505050565b6000815190506128c981611ff5565b92915050565b6000602082840312156128e5576128e4611fbf565b5b60006128f3848285016128ba565b91505092915050565b7f554e534146455f524543495049454e5400000000000000000000000000000000600082015250565b600061293260108361208f565b915061293d826128fc565b602082019050919050565b6000602082019050818103600083015261296181612925565b9050919050565b7f496e697469616c697a61626c653a20636f6e747261637420697320616c72656160008201527f647920696e697469616c697a6564000000000000000000000000000000000000602082015250565b60006129c4602e8361208f565b91506129cf82612968565b604082019050919050565b600060208201905081810360008301526129f3816129b7565b9050919050565b6000819050919050565b600060ff82169050919050565b6000819050919050565b6000612a36612a31612a2c846129fa565b612a11565b612a04565b9050919050565b612a4681612a1b565b82525050565b6000602082019050612a616000830184612a3d565b92915050565b60008190508160005260206000209050919050565b60006020601f8301049050919050565b600082821b905092915050565b600060088302612ac97fffffffffffffffffffffffffffffffffffffffffffffffffffffffffffffffff82612a8c565b612ad38683612a8c565b95508019841693508086168417925050509392505050565b6000612b06612b01612afc84612136565b612a11565b612136565b9050919050565b6000819050919050565b612b2083612aeb565b612b34612b2c82612b0d565b848454612a99565b825550505050565b600090565b612b49612b3c565b612b54818484612b17565b505050565b5b81811015612b7857612b6d600082612b41565b600181019050612b5a565b5050565b601f821115612bbd57612b8e81612a67565b612b9784612a7c565b81016020851015612ba6578190505b612bba612bb285612a7c565b830182612b59565b50505b505050565b600082821c905092915050565b6000612be060001984600802612bc2565b1980831691505092915050565b6000612bf98383612bcf565b9150826002028217905092915050565b612c1282612084565b67ffffffffffffffff811115612c2b57612c2a6122be565b5b612c3582546126c4565b612c40828285612b7c565b600060209050601f831160018114612c735760008415612c61578287015190505b612c6b8582612bed565b865550612cd3565b601f198416612c8186612a67565b60005b82811015612ca957848901518255600182019150602085019450602081019050612c84565b86831015612cc65784890151612cc2601f891682612bcf565b8355505b6001600288020188555050505b505050505050565b6000612ce78385612839565b9350612cf483858461236a565b612cfd836120ca565b840190509392505050565b6000608082019050612d1d60008301886121cb565b612d2a60208301876121cb565b612d3760408301866124aa565b8181036060830152612d4a818486612cdb565b90509695505050505050565b7f4f776e61626c653a206e6577206f776e657220697320746865207a65726f206160008201527f6464726573730000000000000000000000000000000000000000000000000000602082015250565b6000612db260268361208f565b9150612dbd82612d56565b604082019050919050565b60006020820190508181036000830152612de181612da5565b9050919050565b7f5342543a204e6f207472616e7366657273000000000000000000000000000000600082015250565b6000612e1e60118361208f565b9150612e2982612de8565b602082019050919050565b60006020820190508181036000830152612e4d81612e11565b9050919050565b7f4e4f545f4d494e54454400000000000000000000000000000000000000000000600082015250565b6000612e8a600a8361208f565b9150612e9582612e54565b602082019050919050565b60006020820190508181036000830152612eb981612e7d565b9050919050565b7f496e697469616c697a61626c653a20636f6e7472616374206973206e6f74206960008201527f6e697469616c697a696e67000000000000000000000000000000000000000000602082015250565b6000612f1c602b8361208f565b9150612f2782612ec0565b604082019050919050565b60006020820190508181036000830152612f4b81612f0f565b9050919050565b7f4f776e61626c653a2063616c6c6572206973206e6f7420746865206f776e6572600082015250565b6000612f8860208361208f565b9150612f9382612f52565b602082019050919050565b60006020820190508181036000830152612fb781612f7b565b9050919050565b7f536f756c426f756e64546f6b656e3a20616c726561647920686176652061207360008201527f6f756c20626f756e6420746f6b656e0000000000000000000000000000000000602082015250565b600061301a602f8361208f565b915061302582612fbe565b604082019050919050565b600060208201905081810360008301526130498161300d565b9050919050565b7f4e487b7100000000000000000000000000000000000000000000000000000000600052601160045260246000fd5b600061308a82612136565b91507fffffffffffffffffffffffffffffffffffffffffffffffffffffffffffffffff82036130bc576130bb613050565b5b600182019050919050565b600081905092915050565b600081546130df816126c4565b6130e981866130c7565b9450600182166000811461310457600181146131195761314c565b60ff198316865281151582028601935061314c565b61312285612a67565b60005b8381101561314457815481890152600182019150602081019050613125565b838801955050505b50505092915050565b600061316082612084565b61316a81856130c7565b935061317a8185602086016120a0565b80840191505092915050565b600061319282856130d2565b915061319e8284613155565b91508190509392505050565b7f4e487b7100000000000000000000000000000000000000000000000000000000600052601260045260246000fd5b60006131e482612136565b91506131ef83612136565b9250826131ff576131fe6131aa565b5b828204905092915050565b600061321582612136565b915061322083612136565b925082820390508181111561323857613237613050565b5b92915050565b600061324982612136565b915061325483612136565b925082613264576132636131aa565b5b828206905092915050565b600061327a82612136565b915061328583612136565b925082820190508082111561329d5761329c613050565b5b92915050565b7f4e487b7100000000000000000000000000000000000000000000000000000000600052603260045260246000fd5b7f414c52454144595f4d494e544544000000000000000000000000000000000000600082015250565b6000613308600e8361208f565b9150613313826132d2565b602082019050919050565b60006020820190508181036000830152613337816132fb565b905091905056fea2646970667358221220b47237bed83feed4fb58c73b744a009fb8d5d747d5fecade4e130dcc3978a3d864736f6c63430008110033",
  "devdoc": {
    "kind": "dev",
    "methods": {
      "owner()": {
        "details": "Returns the address of the current owner."
      },
      "renounceOwnership()": {
        "details": "Leaves the contract without owner. It will not be possible to call `onlyOwner` functions anymore. Can only be called by the current owner. NOTE: Renouncing ownership will leave the contract without an owner, thereby removing any functionality that is only available to the owner."
      },
      "transferOwnership(address)": {
        "details": "Transfers ownership of the contract to a new account (`newOwner`). Can only be called by the current owner."
      }
    },
    "title": "Profile NFT",
    "version": 1
  },
  "userdoc": {
    "kind": "user",
    "methods": {
      "mint(address)": {
        "notice": "Mint a profile NFT for a user         It is minted by the owner so user no need for gas fee"
      }
    },
    "notice": "This is the user profile NFT on blockchain academy platform         It is a soul bound token, which means it         - can not be transferred         - can not mint more than one for each user         - can be burned (will have side effects)         Profile NFT can link other NFTs to it, for example, after a user finished a course / task,         or attended some events.",
    "version": 1
  },
  "storageLayout": {
    "storage": [
      {
        "astId": 138,
        "contract": "contracts/profile/ProfileToken.sol:ProfileToken",
        "label": "_initialized",
        "offset": 0,
        "slot": "0",
        "type": "t_uint8"
      },
      {
        "astId": 141,
        "contract": "contracts/profile/ProfileToken.sol:ProfileToken",
        "label": "_initializing",
        "offset": 1,
        "slot": "0",
        "type": "t_bool"
      },
      {
        "astId": 899,
        "contract": "contracts/profile/ProfileToken.sol:ProfileToken",
        "label": "__gap",
        "offset": 0,
        "slot": "1",
        "type": "t_array(t_uint256)50_storage"
      },
      {
        "astId": 10,
        "contract": "contracts/profile/ProfileToken.sol:ProfileToken",
        "label": "_owner",
        "offset": 0,
        "slot": "51",
        "type": "t_address"
      },
      {
        "astId": 130,
        "contract": "contracts/profile/ProfileToken.sol:ProfileToken",
        "label": "__gap",
        "offset": 0,
        "slot": "52",
        "type": "t_array(t_uint256)49_storage"
      },
      {
        "astId": 3636,
        "contract": "contracts/profile/ProfileToken.sol:ProfileToken",
        "label": "name",
        "offset": 0,
        "slot": "101",
        "type": "t_string_storage"
      },
      {
        "astId": 3638,
        "contract": "contracts/profile/ProfileToken.sol:ProfileToken",
        "label": "symbol",
        "offset": 0,
        "slot": "102",
        "type": "t_string_storage"
      },
      {
        "astId": 3642,
        "contract": "contracts/profile/ProfileToken.sol:ProfileToken",
        "label": "ownerOf",
        "offset": 0,
        "slot": "103",
        "type": "t_mapping(t_uint256,t_address)"
      },
      {
        "astId": 3646,
        "contract": "contracts/profile/ProfileToken.sol:ProfileToken",
        "label": "balanceOf",
        "offset": 0,
        "slot": "104",
        "type": "t_mapping(t_address,t_uint256)"
      },
      {
        "astId": 3650,
        "contract": "contracts/profile/ProfileToken.sol:ProfileToken",
        "label": "getApproved",
        "offset": 0,
        "slot": "105",
        "type": "t_mapping(t_uint256,t_address)"
      },
      {
        "astId": 3656,
        "contract": "contracts/profile/ProfileToken.sol:ProfileToken",
        "label": "isApprovedForAll",
        "offset": 0,
        "slot": "106",
        "type": "t_mapping(t_address,t_mapping(t_address,t_bool))"
      },
      {
        "astId": 4363,
        "contract": "contracts/profile/ProfileToken.sol:ProfileToken",
        "label": "counter",
        "offset": 0,
        "slot": "107",
        "type": "t_uint256"
      },
      {
        "astId": 4367,
        "contract": "contracts/profile/ProfileToken.sol:ProfileToken",
        "label": "soulBoundTokenId",
        "offset": 0,
        "slot": "108",
        "type": "t_mapping(t_address,t_uint256)"
      },
      {
        "astId": 4271,
        "contract": "contracts/profile/ProfileToken.sol:ProfileToken",
        "label": "baseURI",
        "offset": 0,
        "slot": "109",
        "type": "t_string_storage"
      }
    ],
    "types": {
      "t_address": {
        "encoding": "inplace",
        "label": "address",
        "numberOfBytes": "20"
      },
      "t_array(t_uint256)49_storage": {
        "base": "t_uint256",
        "encoding": "inplace",
        "label": "uint256[49]",
        "numberOfBytes": "1568"
      },
      "t_array(t_uint256)50_storage": {
        "base": "t_uint256",
        "encoding": "inplace",
        "label": "uint256[50]",
        "numberOfBytes": "1600"
      },
      "t_bool": {
        "encoding": "inplace",
        "label": "bool",
        "numberOfBytes": "1"
      },
      "t_mapping(t_address,t_bool)": {
        "encoding": "mapping",
        "key": "t_address",
        "label": "mapping(address => bool)",
        "numberOfBytes": "32",
        "value": "t_bool"
      },
      "t_mapping(t_address,t_mapping(t_address,t_bool))": {
        "encoding": "mapping",
        "key": "t_address",
        "label": "mapping(address => mapping(address => bool))",
        "numberOfBytes": "32",
        "value": "t_mapping(t_address,t_bool)"
      },
      "t_mapping(t_address,t_uint256)": {
        "encoding": "mapping",
        "key": "t_address",
        "label": "mapping(address => uint256)",
        "numberOfBytes": "32",
        "value": "t_uint256"
      },
      "t_mapping(t_uint256,t_address)": {
        "encoding": "mapping",
        "key": "t_uint256",
        "label": "mapping(uint256 => address)",
        "numberOfBytes": "32",
        "value": "t_address"
      },
      "t_string_storage": {
        "encoding": "bytes",
        "label": "string",
        "numberOfBytes": "32"
      },
      "t_uint256": {
        "encoding": "inplace",
        "label": "uint256",
        "numberOfBytes": "32"
      },
      "t_uint8": {
        "encoding": "inplace",
        "label": "uint8",
        "numberOfBytes": "1"
      }
    }
  }
}